:020000040800F2
:1000000000100020392900088525000887250008F0
:1000100000000000000000000000000000000000E0
:10002000000000000000000000000000892500081A
:1000300000000000000000008B2500088D2500084E
:100040008929000800000000892900088929000882
:1000500089290008892900088929000889290008B8
:10006000000000009525000889290008892900085A
:100070008929000889290008892900080000000052
:10008000A5250008000000000000000089290008E4
:100090000000000089290008892900088929000832
:1000A00000000000892900080000000089290008DC
:1000B0000000000000000000000000000000000040
:1000C00010B5064C2378002B07D1054B002B02D02E
:1000D000044800E000BF0123237010BD1000002081
:1000E00000000000643B0008044B10B5002B03D057
:1000F0000349044800E000BF10BDC04600000000F6
:1001000014000020643B000802B47146490849000D
:10011000095C49008E4402BC7047C0460022430877
:100120008B4274D303098B425FD3030A8B4244D3BF
:10013000030B8B4228D3030C8B420DD3FF22090201
:1001400012BA030C8B4202D31212090265D0030BC0
:100150008B4219D300E0090AC30B8B4201D3CB03B6
:10016000C01A5241830B8B4201D38B03C01A5241F8
:10017000430B8B4201D34B03C01A5241030B8B42FA
:1001800001D30B03C01A5241C30A8B4201D3CB02E5
:10019000C01A5241830A8B4201D38B02C01A5241CA
:1001A000430A8B4201D34B02C01A5241030A8B42CD
:1001B00001D30B02C01A5241CDD2C3098B4201D3E5
:1001C000CB01C01A524183098B4201D38B01C01A63
:1001D000524143098B4201D34B01C01A52410309DA
:1001E0008B4201D30B01C01A5241C3088B4201D389
:1001F000CB00C01A524183088B4201D38B00C01A36
:10020000524143088B4201D34B00C01A5241411A5C
:1002100000D20146524110467047FFE701B5002069
:1002200000F006F802BDC0460029F7D076E7704717
:100230007047C046844608006146FFE71FB500F0DE
:10024000B7F8002801D40021C8421FBD10B500F046
:1002500043F84042013010BD10B500F0A9F8002865
:1002600001DB002010BD012010BDC04610B500F01C
:100270009FF8002801DD002010BD012010BDC04600
:1002800010B500F04FF8002801DC002010BD01205F
:1002900010BDC04610B500F045F8002801DA002076
:1002A00010BD012010BDC0469E2110B5C905041C1B
:1002B000FFF7F0FF002803D1201C00F0ABFB10BDBE
:1002C0009E21201CC90500F005FA00F0A3FB802345
:1002D0001B069C466044F2E770B5420045024E02A0
:1002E0004C00C30F6D0A0120120E760A240EC90FAE
:1002F000FF2A06D0FF2C03D0A24201D1B54206D07E
:1003000070BD002DFCD1FF2CFAD1002EF8D18B420C
:1003100006D00120002AF3D12800431E9841EFE7C0
:100320000020EDE770B5420045024E024C00C30FBD
:100330006D0A120E760A240EC80FFF2A1BD0FF2C5E
:100340000ED0002A1BD1002C01D1002E1CD0002D74
:100350000CD083421CD00221581E0840013870BDC9
:10036000002E22D1002AF4D1002DF2D10028F6D19E
:1003700001204042F3E7002D17D1FF2CF0D0002CD4
:10038000E7D1002EE5D1E6E70020002DE7D0E2E737
:10039000A24205DCEADBB54202D8E7D30020DEE763
:1003A0004342584140000138D9E702204042D6E795
:1003B00070B5420045024E024C00C30F6D0A120E8A
:1003C000760A240EC80FFF2A0BD0FF2C0DD0002A6E
:1003D0001FD1002C16D1002E14D10020002D10D0DA
:1003E00009E0002D0CD1FF2C13D1002E08D1002ADA
:1003F00008D0834212D00221581E0840013800E084
:10040000022070BD002DF4D10028FAD10120404215
:10041000F7E7002CEDD1002EEBD1ECE7A24205DC92
:10042000F2DBB54202D8EFD30020EAE7434258415D
:1004300040000138E5E7C04643025B0AF0B54F468D
:1004400046469946D646C30F45009846C0B54B462A
:100450000F1C2D0E00D1CBE0FF2D00D1CFE080226C
:10046000DB00D2041A430023914600269A467F3DC2
:100470007C027B00640A1B0EFF0F002B00D1A9E059
:10048000FF2B11D08022E400D204144342467F3B6C
:100490005B197A400020D2B25D1C0A2E13DD3A00AF
:1004A0000B2E47D047463FE02B00FF33002C1ED1D8
:1004B00002221643424601357A40D2B2FF350A2E57
:1004C00000DDE4E00220022E1CDC013E012E42D8B9
:1004D00002283DD0012866D100200021C005084334
:1004E000D2071043E0BCBA46B146A846F0BD03228D
:1004F0001643424601357A40D2B2FF350A2E00DD5E
:10050000E4E003200121B140A626F60031420AD1E1
:100510009026B600314216D1B93EFF3E0E421AD0A7
:10052000A146824600E0170053463A00022B0FD046
:100530004C4650460328CDD18021C90321434902AE
:10054000FF20490ACAE780210022FF20C903C5E72E
:10055000FF200021C2E7200C49462404240C270078
:100560000E0C0904090C74434F4346434843390CAD
:10057000001909188C4203D9802040028446664441
:100580003F0408043F0CC0198401671EBC41090CDC
:10059000800E8919044389010C43090171D5012397
:1005A00061081C400C432B007F33002B51DD610799
:1005B00004D00F212140042900D00434210103D5A7
:1005C000434B1C402B008033FE2BC1DCA101490AA8
:1005D000D8B283E7002C2CD1012342461E432B00C6
:1005E0007A400120D2B25D1C0A2E00DD57E76AE78F
:1005F000002B10D10123042600259A4638E7002B52
:1006000004D102230826FF259A4631E703230C264E
:10061000FF259A462CE7484601F0BEFC4A46431F98
:1006200076259A4000236D42914600269A462D1A5F
:100630001EE7200001F0B0FC4246431F9C402B1AED
:10064000763B7A400020D2B25D1C0A2E00DD26E700
:1006500039E70121CB1A1B2B00DD3DE79E35210038
:10066000AC40D940631E9C4121434B0704D00F236B
:100670000B40042B00D004314B0104D50120002194
:100680002CE71D008FE789010020490A26E7022395
:100690000F2E0CD180214B46C9030B420DD00C42CA
:1006A0000BD1214349023A00FF20490A16E70B2EDD
:1006B00000D0F7E6A1469A4636E780214B46C903AB
:1006C000194349024246FF20490A07E70323DFE7AF
:1006D000FFFFFFF7F0B5C64643025B0A4500DA00AC
:1006E000C40F48024F009446420A1E00904600B5CF
:1006F0002D0E3F0EC90F8009FF2F59D00122514006
:100700008C4239D0EA1B002A58DD002F68D0FF2D1B
:1007100000D1D1E08023DB0418431B2A00DCE3E096
:1007200001236246D31A5A0100D4ACE09B019E0912
:10073000300001F031FC330005388340854200DC95
:10074000C6E0B24A2D1A13405A0704D00F221A40AD
:10075000042A00D004335A0100D497E06A1CFE2D0D
:1007600000D184E09B015E0AD2B2D0053043E40799
:10077000204380BCB846F0BDEA1B002A41DD002FB3
:100780006BD0FF2D00D197E08023DB0418431B2A98
:1007900000DCCCE0012363445A0174D50135FF2D00
:1007A00065D001229A491A405B080B401343CBE7FE
:1007B00000281FD08C4222D02A00FF3A002A35D0D0
:1007C0007A1B002D00D099E06346002B00D1DDE0BC
:1007D000531E012A00D105E1FF2A6BD01A0094E0D4
:1007E000002873D0511E012A00D1DFE0FF2A63D018
:1007F0000A0092E701225140A14200D082E72A007C
:10080000FF3A002A36D07A1B002D00D1AAE0FF2F34
:1008100000D1DAE080236146DB0419438C461B2AB1
:1008200000DCD4E001233D001B18B5E7FE276A1C5D
:10083000174271D1002D00D09EE06346002B00D1FD
:10084000D5E00022002800D18FE71B1A5E0100D4FA
:10085000D6E063460C00C31A76E7002836D0511E56
:10086000012A00D19AE0FF2A26D00A008FE7FF2252
:1008700000267AE7FE276A1C174262D0FF2AF6D0CC
:100880001500604443085A0700D05FE7DB08FF2DDE
:1008900012D05B025E0AEAB267E76246002A00D124
:1008A00093E0002808D08022D203134204D04046AF
:1008B000104201D10C004346002BD8D08026F6030D
:1008C0001E437602FF22760A4FE743461500DEE715
:1008D0002022401B0130121A19009340C1405A1EB9
:1008E000934100250B432FE720239B1A01009840DA
:1008F0000300D1405A1E93410B4312E7FF2FD9D07A
:1009000080236446DB041C43A4461B2A52DD0123DA
:100910000C003D00C31A06E763461E1A730139D462
:10092000002E00D004E70024002200261DE720232B
:100930009B1A010098400300D1405A1E93410B437B
:1009400029E7002DA9D16346002B56D000220028AC
:1009500000D10AE7030063445A0194D52B4A0135BC
:10096000134090E76346002BAFD0531E012A15D0E9
:10097000FF2A2AD01A0052E76246002A91D10028A5
:1009800098D180260024FF22F603EEE60C004346B1
:1009900015007CE763460C00C61AC9E603006344F1
:1009A00001255A0100D46EE70225FAE663460125C7
:1009B0001B1AB8E664462023D4409B1A62469A402C
:1009C00013005A1E93412343A2E7434674E761464E
:1009D0002023D1409B1A62469A4013005A1E93412D
:1009E0000B4320E763460C000125C31A9BE6002851
:1009F00099D00C0046460022B7E646460022B4E6EF
:100A0000002B00D03FE700240026AEE6FFFFFFFBEF
:100A1000FFFFFF7D41024200C30F490A0020120E72
:100A20007E2A03DD9D2A02DD094A9818704780203E
:100A300000040143952A07DC9620821AD1404842DF
:100A4000002BF3D10800F1E7963A9140F7E7C04652
:100A5000FFFFFF7FF0B54F464646D6460400C0B5BF
:100A60001F000B0310004E005B0ACD0F610F7A00D0
:100A70001943E3003C03FF0FBC46640A470F2743BA
:100A8000760D520DC000B9468046B71A654500D1B3
:100A90009BE0002F00DC84E0002A00D1BEE0C84AC1
:100AA000964200D124E180224C4612041443A14610
:100AB000382F00DD67E11F2F00DDD6E120224C46F4
:100AC000D21B9440A2464446FC40200054460443B6
:100AD00040469040421E90414A46FA400443891ADB
:100AE0001C1BA342924152428B1A9A4653461B0248
:100AF00000D4D4E053465A02530A9A465346002B78
:100B000000D104E1504601F047FA0300083B2022DF
:100B10002000D21A5146D040994002009C400A431E
:100B2000B34200DA02E19B1B591C1F2900DDA7E03C
:100B30002023100026005B1A9C409840CE40CA40FB
:100B4000631E9C413043924600260443630709D04C
:100B50000F232340042B05D0231DA342A44164424C
:100B6000A2441C0053461B0200D49BE0944B013668
:100B70009E4200D1B8E053469249E4080B40190068
:100B80005B07234372054C02240B520D1205ED073F
:100B900022432A4318001100E0BCBA46B146A846D9
:100BA000F0BD002F48D0971B002E00D00EE10C00A6
:100BB0001C4300D1B7E17C1E012F00D126E2804DFD
:100BC000AF4200D1D5E1270007E1002F00DCB2E001
:100BD000002A47D07A4A964200D189E080224C46CA
:100BE00012041443A146382F6BDC1F2F00DC6EE18A
:100BF0003A004846203AD0408446202F07D0402271
:100C00004846D21B90400200404610438046404672
:100C1000421E904162460400144357E04A46024394
:100C200000D103E17A1E012F00D193E1644CA74269
:100C300000D18AE117003BE7634C721C224200D0CE
:100C4000E0E00A001A43002E00D074E1002A00D12F
:100C5000D0E14A46024300D0E3E14A07DB081343F0
:100C6000C90829E04A46024300D17DE17A1E012FDE
:100C700000D1E0E0524CA74200D166E11700B2E794
:100C800010001F3BD840202903D040235B1A9A4014
:100C90001443631E9C41002300269A4604436307C5
:100CA00000D055E75246E308520713435246370037
:100CB000D108434A97421FD009037A050C0B520D05
:100CC00064E742464C461443621E9441E4189C4239
:100CD0009241524292468A4453461B02DFD5384B1A
:100CE00001369E4200D0B3E03200002400234DE7DD
:100CF0004A07DB081343C9081A000A4300D100E27F
:100D0000802424030C4324032D4A240B3EE72000B7
:100D100001F042F9030018331F2B00DCF7E6220034
:100D2000083882400024B34200DBFCE6F61A254B6B
:100D30001A4092460AE7002F2BD0971B002E00D1B5
:100D4000B8E01F4CA24200D11CE1802424042143BE
:100D5000382F00DD1EE11F2F00DD9EE120260C0054
:100D6000F61B1800B340B440F8405E1EB341F94092
:100D700004431C438944444444459B415B424B44E7
:100D80009A461600A8E742464C461443621E944118
:100D9000A6E60D4C721C224200D0A8E00A001A43BD
:100DA000002E00D00AE1002A00D15EE14A4602434B
:100DB00000D061E14A07DB081343C9087CE7C0465D
:100DC000FF070000FFFF7FFFFE070000CF4CA2429D
:100DD00000D1CEE0802424042143382F5BDC1F2F78
:100DE00000DDDCE020250C00ED1B1E00AB40AC401C
:100DF000FE405D1EAB413443F9401C434B465B1A39
:100E000099464CE04A461C1A881AA3429241524223
:100E1000924602005046121A9246120278D4534665
:100E2000234300D06AE60021002545E74A07DB0896
:100E30001343C9083DE71C189C429B4149448A461C
:100E40005B429A44534601261B0200D427E7022640
:100E50005246AF4B01211A401300214062080A4359
:100E6000DC075B089A46144370E63A004C46203A89
:100E7000D440A446202F07D040224846D21B9040A1
:100E800002004046104380464046421E9041624662
:100E90000400144324E619430C00631E9C4143469E
:100EA0001C1BA0459B4149465B42CB1A9A466546AE
:100EB00016001BE60C001C4300D1C7E07C1E012F6E
:100EC00000D1F9E0914EB7425CD0270040E72022E4
:100ED0004C464046D21B9440F84004434046904064
:100EE000421E90414A46FA4004438918EEE6874C78
:100EF000A24200D1F9E6181898429B4149445B424E
:100F0000CB18DC0740085B089A4616000443C6E687
:100F10004246D41AA04580414B464042591A0B1A0A
:100F20009A466546EAE54B464A46C0085B07654671
:100F30000343D108BDE6002A00D08EE04B460343B0
:100F400017D1802100250903DAE64A07DB0813439D
:100F5000C908D1E61C1A4A46A3429B41891A5B4242
:100F6000CB1A9A460126C1E54A07DB081343C90894
:100F70009FE64346D8084B464A465B07654603430F
:100F8000D108B9E64346D8084B464A465B070343B7
:100F9000D108B1E619430C00631E9C41EBE63C000E
:100FA0000D00203CE540202F03D04024E41BA1404D
:100FB0000B431C00631E9C412C4370E7002AE1D0C8
:100FC0004A460243C1D04A07DB0813438022C908BE
:100FD0001203114208D04846C408144204D14346C3
:100FE0002100DB08420713435A0FDB005207DB08DE
:100FF000134381E64B46034300D114E74B464A4670
:10100000C0085B0765460343D10855E6C41AA045EE
:1010100080414B464042591A0B1A9A4665460126B2
:1010200064E51C1A4A46A34280418A1A4042121AB9
:101030009246120249D54246D41AA04580414B46F9
:101040004042591A0B1A9A4665467FE54B464A4676
:10105000C0085B070343D1082BE64A46DB0802437E
:1010600038D14A071343C90846E64B464A46C008EA
:101070005B070343D1081FE61C189C429B4149446F
:101080008A465B429A4453461B0200D407E6524606
:101090001F4B01261A40924601E63C000E00203C00
:1010A000E640202F03D04024E41BA1400B431C004A
:1010B000631E9C4134435EE643448342804149447D
:1010C0008A4640421C008244BCE65346234300D17A
:1010D000A9E6E4E54A0713438022C9081203114236
:1010E00009D04846C408144205D14346654621004C
:1010F000DB08420713435A0FDB00DB085207134398
:10110000FAE50023014A1C0040E5C046FF07000045
:10111000FFFF7FFFF0B54546DE4657464E46E0B539
:101120001F000B031B0B9B464D00CB0F0400914689
:10113000984687B06D0D00D1CDE1CE4B9D4200D1D8
:10114000E9E15A46430FD2001343802212041A43A6
:10115000C3009A46C84B93469C460023002665442C
:1011600000933C037B004846240B5B0DFF0F002BD4
:1011700000D189E1BF4A934219D0420FE4002243D3
:10118000802424041443BC4A00219446424663440C
:101190005B190193019B7A400133C000D2B20293E4
:1011A0000A2E1CDD3A000B2E5ED0474656E049461B
:1011B000B04B2143EB18019300292AD18020022251
:1011C00000012B0084461643424663447A40D2B263
:1011D00002930A2E00DD31E2002000240221022EBB
:1011E00026DC013E012E52D802294CD0012900D024
:1011F00018E10023002400251B052343D2071343D5
:101200002800190007B0F0BCBB46B246A946A0466C
:10121000F0BD8021032209012B008C461643424673
:1012200063447A40D2B202930A2E00DD28E2032101
:101230000125B540AC46A6266346F600354033424C
:101240000BD19026B600334218D1B93EFF3E1E4264
:101250001DD0A3468246009100E0170000993A0095
:10126000022910D05C4650460329BFD180231B03BE
:101270001C43240305007F4B240BBDE78024002280
:101280007C4B2403B8E7002400257A4BB4E753468F
:101290001E04360C1F0C3300010C0004000C4343E9
:1012A000984603007B43994633004B439C46434694
:1012B0000D001B0C9A467D43CC44D4440095E14577
:1012C00004D980235B0299464D44009563461B0C6C
:1012D0001D0063461B049C4643461B041B0C98469A
:1012E000634643440393230C984633002404240CA0
:1012F00063439C4623007B43994643465E435F43DA
:101300004E446346B2461E0C5644B14503D9802371
:101310005B0299464F44330C99463B004B4405937E
:101320006346AC461F043F0C3604F619B4446346CA
:1013300004935B461B0C9C465B461F043F0C3B0022
:1013400043439946634643439A464B4660461B0CCB
:101350009B4648437943514459448A4503D98023E5
:101360005B029A4650440B0C9A464B461B041B0CDE
:1013700099463B0063430904454649449946634600
:101380005C436B439C464B461B0C98466F433F198E
:1013900047445044BC4203D980235B029846C4446E
:1013A000049B009D98464544B542B6417342984619
:1013B0004B461E04059B3C049946360CA4194C442C
:1013C000A14683466E18C1448E428941CB445D4696
:1013D00049426D189C42A441C1459B4183458041CF
:1013E0008D4289415B4264421C434042039B494217
:1013F000014370023F0C1843E419471EB8416418BA
:101400006444F60D61023043EC0D6E020C43304330
:10141000C90100D4F1E00121430801400B43E0077A
:10142000184364081549029B8C466344002B00DC7A
:1014300097E0410709D00F210140042905D0011D83
:1014400081428041404224180800E10106D58021F4
:10145000C9008C460A4B1C40029B634409498B42DD
:1014600000DD10E76107C50864025B050D43240B2E
:101470005B0DC1E6FF07000001FCFFFFFF0300005A
:10148000FFFFFFFEFE0700004B46234359D0002C10
:1014900000D1A3E0200000F07FFD010003000B3924
:1014A0001D22521A49461800D1404A460838824047
:1014B000844010000C43744AEB1A9446424663443D
:1014C0000193019B7A4001330021D2B202930A2E8C
:1014D00000DD67E683E65B4603439A462AD05B4617
:1014E000002B6DD0584600F057FD010003000B396A
:1014F0001D22521A210018005D46D140083885404F
:101500000A0084402A439346A2465F4D0026ED1A06
:101510000023009325E65B4603439A4605D100234A
:101520009B460233082600931BE6032382460C26C3
:10153000009316E600239B46013304260025009302
:101540000FE64246013301951E43019B7A40013369
:10155000002400200121D2B202930A2E00DD21E6F0
:101560003DE60121C91A382900DD42E61F2947DD81
:101570001F2625007642F31ADD402B00202905D0D6
:101580004249029D8C466544AC402043411E88413F
:10159000184307231D000024054003424AD00F23AF
:1015A00000240340042B42D0031D8342804140426B
:1015B0002418180023023AD50123002400251BE635
:1015C00000F0EAFC01000300153120331C298FDDF7
:1015D0000838002284409246A34696E700F0DCFCDF
:1015E00001000300153120331C2900DC58E70200FC
:1015F0004C46083A002094405DE7019B029311E7B6
:10160000234B26009C460300029DCB406544AE4020
:101610001E430300AB40581E834130001843CC40AA
:101620004307C7D00F230340042BBDD1C2E7650792
:101630006402240BC00800230543DDE500250223D6
:101640000F2E0CD180245B46240323420ED021426E
:101650000CD10C4324033A000E4B240BCCE50B2E8B
:1016600000D0A2E58B46AA460093F7E580245B46AE
:1016700024031C43240342465546064B240BBBE57A
:101680004D4621000323DBE70DFCFFFF3E04000075
:101690001E040000FF070000F0B557464E464546C1
:1016A000DE46E0B50D000400190010002B035B0AB4
:1016B000620F1A43E3000C03640A470F2743D04C20
:1016C0006E00914683B04A00C0009846A246760D4F
:1016D000ED0F520DC90F0190A24200D1B9E00124D3
:1016E00061408B468D4200D18DE0B41AA446002C97
:1016F00000DCB7E0002A00D1CBE0C14A964200D11D
:1017000086E18022120417436246382A00DDA4E1F4
:101710001F2A00DD1DE2614620223C00521A010012
:1017200090409440421E90416246A0466446D74095
:101730004A46E1404446D21B91460C4304431C1BDD
:10174000A34292414B4652429B1A9A4653461B0271
:1017500000D42BE153465A02530A9A465346002BB3
:1017600000D166E1504600F017FC0300083B202240
:101770002000D21A5146D040994002009C400A43B2
:101780009E4200DD64E19B1B591C1F2900DDFEE029
:101790002023100026005B1A9C409840CE40CA408F
:1017A000631E9C413043924600260443630709D0E0
:1017B0000F232340042B05D0231DA342A4416442E0
:1017C000A2441C0053461B0200D4F2E08C4B0136AD
:1017D0009E4200D10FE153468A49E4080B401900AC
:1017E0005B07234372054C02240B520D1205224362
:1017F000ED072A431800110003B0F0BCBB46B24607
:10180000A946A046F0BDB41AA446002C59DD002A12
:1018100000D1B0E0564500D1FAE08022120417430F
:101820006246382A00DDD4E01F2A00DCC0E139001E
:10183000203AD1406246202A06D064464022121B3C
:101840003C00944004430194019C621E94410C436B
:10185000C3E03C0004432BD08B468D422ED06A4C13
:10186000A446B4446446002C5FD0941BA446002ECA
:1018700000D020E14C461C4300D1C7E161464C1E1C
:10188000012900D123E25E4DAC4500D1D8E1A44648
:101890001AE13A00024300D1E4E02200013A012CAF
:1018A00000D1C3E156498C4200D1B1E094462BE708
:1018B000012461408B468D4200D016E752498C4688
:1018C000B4446446002C00D1D3E0911B8C46002E1A
:1018D00000D15EE14A498A4200D1BEE180214C46F6
:1018E00009040C43A1466146382900DDBAE11F29ED
:1018F00000DD27E22024641A4946A1401E008846E4
:101900006146A340CE4041465C1EA341314319438A
:101910000C0063464946D9407F18241884429B41F5
:101920005B429A461600BA445DE0384C721C224273
:1019300000D0DFE04A461A43002E00D05CE1002AC6
:1019400000D1CFE13A00024300D17FE11C1A4A46A0
:10195000A3428941D21B4942521A9246120200D434
:101960000AE2C41AA04280414B464042FF1A3B1A89
:101970009A465D461AE73A00024373D02200013AC4
:10198000012C00D1CBE0544542D0944648E71000EA
:101990001F3BD840202903D040235B1A9A401443B0
:1019A000631E9C41002300269A460443630700D02F
:1019B000FEE65246E308520713435246B446D208A5
:1019C0000F498C452AD01203140B62465205520D62
:1019D0000CE73C000443621E9441E4189C4292418F
:1019E00052424A44924653461B02DFD5044B01360D
:1019F0009E4200D0A0E0320000240023F6E6C0465C
:101A0000FF070000FFFF7FFF01F8FFFFFE07000058
:101A1000DB084A46520713434A46D20819001143CD
:101A200000D1B5E18024240314432403D54A240BB8
:101A3000DCE6200000F0B0FA030018331F2B00DCB6
:101A400095E622000838824000249E4200DC9AE697
:101A5000F61ACD4B1A409246A8E63C000443621E9B
:101A600094416CE64A46DB08520713434A46D208C3
:101A7000A6E7C64C721C224200D0ACE04A461A438C
:101A8000002E00D005E1002A00D156E13A000243C1
:101A900000D1DBE01C189C429B414F44BA465B429C
:101AA0009A4453461B0200D480E75246B64B0126A7
:101AB0001A4092467AE7B34CA24200D1C0E080249B
:101AC0004D4624042543A9466446382C53DC614620
:101AD0001F2C00DDCDE020251E002D1B4C46AB4009
:101AE000AC40CE405D1EAB41344323434C46CC401A
:101AF0003F1B45E04A461C1AD11BA3429241524269
:101B000092460A005146521A9246120200D583E0CC
:101B10005346234300D021E60022002553E71C183A
:101B20009C429B414F44BA465B429A44534601262D
:101B30001B0200D43AE702265246934B01211A4079
:101B40001300214062080A43DC075B089A461443ED
:101B50002CE63900203AD1406246202A06D064465D
:101B60004022121B3C00944004430194019C621EDD
:101B700094410C43E3E5494619430B005C1EA34125
:101B8000C41AA0429B415B42FB1A9A465D4616006E
:101B9000DCE54946194300D1AEE0614664460139AF
:101BA000012C00D1E0E0774CA44556D08C469AE653
:101BB000614620223C00521A944001009040A04609
:101BC0006446421E90416246E1404446D7400C4381
:101BD0000443B94401E76B498A4200D10CE7181865
:101BE00098429B414F445B42FB18DC0740085B086E
:101BF0009A4616000443D9E6002A00D081E03B0053
:101C000003431DD18022002512030BE7C0087B0788
:101C10005D460343FA08D3E6C41AA04280414B460E
:101C20004042FF1A3B1A9A465D4697E51C1A4A46FF
:101C3000A3429B41D71B5B42FB1A9A46012685E5CE
:101C4000C0087B075D460343FA08E7E64A46DB081F
:101C5000520713434A46D208B5E6C0087B07034340
:101C6000FA08DBE6494619430B00591E8B411C005C
:101C700053E64D46203CE540202905D04024641A17
:101C80004946A1400B43984643465C1EA3412B4363
:101C900076E7002AE1D03A00DB08024300D1B8E63B
:101CA0004A465207802413434A462403D20822425C
:101CB00007D0FE08264204D15D463200C3087F07E4
:101CC0003B43590FDB004907DB080B43A6E6C41A68
:101CD000A04280414B464042FF1A3B1A9A465D465D
:101CE000012633E53B00034300D115E7C0087B071D
:101CF0005D460343FA0866E6C0087B070343FA081B
:101D00005EE63A00DB08024300D182E64A4652070B
:101D1000802413434A462403D208224207D0FE08F7
:101D2000264204D15D463200C3087F073B43590F6A
:101D3000DB00DB0849070B4370E6C0087B07034361
:101D4000FA0840E64C462039CC406146202906D0AE
:101D500066464021891B4E468E4033439846434693
:101D6000591E8B411C43D8E51C18844280414F44C6
:101D7000BA4640428244D9E65346234300D1CBE6DB
:101D800014E6C046FF070000FFFF7FFFFE070000CC
:101D90000023014A1C0029E5FF07000070B5002858
:101DA00016D0C317C5185D40C40F280000F0F4F822
:101DB000114B1B1A0A2816DC02002E001532964021
:101DC0000B22121AD5405B052D032D0B5B0D03E092
:101DD00000240023002500261B052B43E407234392
:101DE0003000190070BD0B3885405B052D030026BF
:101DF0002D0B5B0DF0E7C0461E04000070B54202DB
:101E00004300C40FFE201B0E591C550A08420CD07B
:101E1000E02189008C466D07120B63441B051343B8
:101E2000E40723432800190070BD002B14D1002DB6
:101E30001BD0280000F0B0F80A281CDC0B232A0075
:101E40001B1ADA40030015339D400E4B12031B1A78
:101E50005B05120B5B0DE1E7002D09D0130B80220F
:101E600012031A436D07084BD8E700230022D5E779
:101E70000022054BD2E703002A000B3B9A400025C5
:101E8000E3E7C04689030000FF0700000200F0B549
:101E90004B000D03400F5B0DCC0F6D0A3A49054313
:101EA000581CD70008420AD038495918FE2916DDB7
:101EB000FF200022C0051043E4072043F0BD002BA3
:101EC00006D13D4326D005229201520AD8B2F1E74D
:101ED0002F43EDD08022D203FF202A43EAE70029D6
:101EE0001BDD9201501E8241ED007F0F2A433A43D1
:101EF000530747D00F231340042B00D00432802314
:101F0000DB0413403ED0481CFE29D1D09201520A76
:101F1000C0B2CFE700200022CCE70A0017322FDB47
:101F2000802636042E431E256D1A1F2D11DD022238
:101F30005242521A3100D140202D04D0144A944606
:101F400063449E4037433A00531E9A410A4300219E
:101F5000CEE7104A38009446634498403A00411E48
:101F600088419E40EA403043024300215307C1D1DB
:101F700080211300C90401200B400A42C6D1A3E707
:101F80000023A0E70B009FE7FE07000080FCFFFF97
:101F9000A2FCFFFF82FCFFFF1C2101231B049842CF
:101FA00001D3000C10391B0A984201D3000A0839EA
:101FB0001B09984201D30009043902A2105C4018A1
:101FC0007047C04604030202010101010000000045
:101FD000000000001FB50C22002101A801F096FDB1
:101FE0000421154C154B6161802149022360A161D8
:101FF0000023C22101226360A360E360FF312362FA
:102000002000631D2261E161DA77A26200F054FDD5
:10201000002801D000F07AF90923019380235B01A5
:1020200002930723200001A9039300F081FE0028FA
:1020300001D000F06BF91FBD2C00002000240140EE
:1020400030B5050089B01422002103A801F05EFD1F
:102050001D4B2A689A4235D180211C4B89009A6910
:102060001B480A439A619A690A4080210192019AA9
:102070005A69C9020A435A615B690B400293029B89
:10208000022303A903930133049300F0D3FF114CFF
:10209000114B2000236000236360A3608033E36062
:1020A000803323618023DB0063612023A3618023CD
:1020B0005B01E36100F004FF002801D000F026F985
:1020C0002C63656209B030BD00240140001002405D
:1020D000000400486C0000200800024007B5012100
:1020E000084B09205A690A435A6100225B690B4078
:1020F00001931100019B00F093FE092000F0BAFE4D
:1021000007BDC04600100240264BF7B51B78264C91
:10211000002B45D0254D288880B2FFF73FFE244A8A
:10212000244BFEF7F7FF0022234BFEF7F3FF234B70
:102130000022FEF78FFCFFF7A9FE6860686820495F
:10214000FEF78AF80023002800D10123AB706B68EA
:1021500001931C4B1D68281CFFF750FE02000B006A
:1021600000201949FFF798FA060020680F00FFF7D2
:1021700045FE02000B0030003900FEF7CBFF0600E1
:102180000F000198291CFEF757F9FFF737FE0200F0
:102190000B0030003900FEF75DFCFFF777FE206092
:1021A0002068FEBD20010020B0000020B400002007
:1021B000B4D934E70C684A3F00002A400000E03FF1
:1021C0000000B041000000200000F03FF0B589B0F1
:1021D0001422002103A801F099FC80211A4B8902E6
:1021E0005A6990270A435A615A69184C0A4080215B
:1021F0000192019A5A69C9020A435A615B69144DF6
:102200000B40FF052100380002930022029B00F0E2
:10221000C9FF00222800082100F0C4FF0126039412
:102220000024380003A904960594069400F002FFE8
:102230000823280003A9039304960594069400F04C
:10224000F9FE09B0F0BDC046001002407E1F00003C
:102250000004004830B5102591B02C22002105A8BB
:1022600001F054FC2A000021684601F04FFC1223C3
:102270000493A023012408950A959B030E3D04A80E
:10228000079409940C950E9300F092FF002801D05A
:1022900072B6FEE707230290039021006846009380
:1022A000019501F0A9F9002801D072B6FEE711B03E
:1022B00030BD000070B500230125114C238023722E
:1022C000A57000F087FBFFF7C5FFFFF77FFFFFF763
:1022D00005FFFFF77FFE00F06FF92A002100094893
:1022E00000F08EFC084801F00BFA00F077FAFFF7D7
:1022F0000BFF00F001F900F0DDF800F0F3FAF4E76D
:10230000B40000202C000020C800002072B6FEE7B8
:10231000F8B5654B14001A7A0600002A4CD19B7858
:10232000DDB2002B48D1802190202A00C900C005D1
:1023300000F038FF90202A002021C00500F032FF75
:1023400090202A001021C00500F02CFF90202A00C8
:102350000221C00500F026FF802190200122890083
:10236000C00500F01FFF902001224021C00500F0B1
:1023700019FF902001220421C00500F013FF8021E5
:10238000902001220901C00500F00CFF0122082164
:10239000464800F007FF8021902001224900C00537
:1023A00000F000FF902001220821C00500F0FAFE95
:1023B00001228021490167E03D4B90205F5C802134
:1023C0000022C900C00500F0EDFE9020002220216F
:1023D000C00500F0E7FE902000221021C00500F0AB
:1023E000E1FE9020012500220221C00500F0DAFE66
:1023F0002A0080219020BA438900C00500F0D2FE57
:102400002A0090207B089A434021C00500F0CAFEB4
:102410002A009020BB089A430421C00500F0C2FEA8
:102420002A0080219020FB089A430901C00500F092
:10243000B9FE2A003B099A4308211C4800F0B2FE6D
:102440002A00802190207B099A434900C00500F0B2
:10245000A9FE2A009020BF090821BA43C00500F058
:10246000A1FEE24380219020D2B2D2094901C005E9
:1024700000F098FE032E0BD830000122FDF744FE39
:10248000020910128021C9009020C00500F08AFEC8
:10249000F8BD90202021C00500F084FE002288E7CE
:1024A0001021F1E70221EFE7B4000020000400480A
:1024B0007C3B00080D4B10B51B78002B14D00C4C46
:1024C0000C4A20782378C0B2DBB2D15C0222C9B2B8
:1024D000FFF71EFF03222378013313402370237874
:1024E000042B01D10023237010BDC0461B01002026
:1024F000C0000020C100002070B51449FDF79CFF0A
:10250000FDF7D2FEFA2184B220008900FDF706FE15
:102510000A2180B2FDF788FE0D4DC9B22970200056
:102520006421FDF7FBFD0A2180B2FDF77DFEC9B2F3
:10253000697020000A21FDF7F1FD0A2180B2FDF744
:1025400073FE0023C9B2A970EB7070BD0000C842D1
:10255000C100002001210A4B82B09A690A439A61A6
:102560009A690A4080210092009ADA6949050A4373
:10257000DA61DB690B400193019B02B07047C046F2
:1025800000100240FEE7FEE77047704710B500F00C
:1025900031FA10BD10B5024800F002FD10BDC04672
:1025A0006C00002010B5024801F0D6F810BDC046FE
:1025B000C80000207047000010B586B0102200212E
:1025C00002A801F0A3FA08220021684601F09EFA51
:1025D000154C164BFA2223602F23636000239200D0
:1025E0002000A360E2602361A36101F097F9002855
:1025F00001D0FFF78BFE802320005B0102A902932C
:1026000001F0C0F9002801D0FFF780FE00236946E1
:1026100020000093019301F04FFA002801D0FFF74A
:1026200075FE06B010BDC046C80000200004004082
:1026300007B50B4B02689A4210D10221094B1020BA
:10264000DA690A43DA610022DB690B400193110069
:10265000019B00F0E5FB102000F00CFC07BDC0461C
:102660000004004000100240444B02689A4200D02F
:1026700083E0434A4349137809780133DBB213708E
:10268000994204D20121404B1970002313703F4A34
:1026900013780133DBB21370002B04D001213C4BC3
:1026A0001970002313703B4A13780133DBB21370A7
:1026B000092B04D90121384B197000231370374AB4
:1026C00013780133DBB21370182B04D90121344B7A
:1026D000197000231370334A13780133DBB213707F
:1026E000312B04D90121304B1970002313702F4A6C
:1026F00013780133DBB21370632B04D901212C4B07
:102700001970002313702B4A13780133DBB2137056
:10271000F92B08D9012328490B7000211170274A91
:10272000117A4B401372FA21254A4900138801336C
:102730009BB213808B4205D3224BF439FF391970B9
:1027400000231380FA21204A8900138801339BB2A9
:1027500013808B4204D301211C4B1970002313807A
:102760001B4A1C49138801339BB213808B4204D946
:102770000121194B19700023138070470004004099
:102780002F01002008000020310100201A01002044
:102790001C0100201301002015010020250100204C
:1027A000270100202C0100202E0100201001002014
:1027B000120100202201002024010020B40000208A
:1027C000280100202B0100201E01002021010020F3
:1027D000160100200F270000190100202D4A137850
:1027E000002B04D001212C4B1970002313702B4AAD
:1027F0001378002B04D00121294B1970002313708A
:10280000284A1378002B04D00121274B197000238C
:102810001370264A1378002B04D00121244B197021
:1028200000231370234A1378002B04D00121224B7C
:10283000197000231370214A1378002B04D0012152
:102840001F4B1970002313701E4A1378002B04D0FD
:1028500001211D4B1970002313701C4A1378002BA3
:1028600004D001211A4B197000231370194A1378F0
:10287000002B04D00121184B197000231370174A44
:102880001378002B04D00121154B1970002313700D
:102890007047C04631010020300100201C0100209B
:1028A0001B01002015010020140100202701002039
:1028B000260100202E0100202D0100201201002001
:1028C0001101002024010020230100202B01002001
:1028D0002A010020210100202001002019010020F0
:1028E0001801002000230A4A13700A4A13700A4A8A
:1028F00013700A4A13700A4A13700A4A13700A4A7C
:1029000013700A4A13700A4A13700A4A1370704708
:10291000300100201B0100201401002026010020AE
:102920002D01002011010020230100202A01002098
:1029300020010020180100200D488546FFF73AFECF
:102940000C480D490D4A002302E0D458C45004330A
:10295000C4188C42F9D30A4A0A4C002301E01360E0
:102960000432A242FBD301F0D9F8FFF7A3FCFEE743
:10297000001000200000002010000020C03B0008D4
:102980001000002038010020FEE7000070B50500AF
:10299000FA200D4B80001978FDF7C0FB0B4C0100AD
:1029A0002068FDF7BBFB00F071FA04000120002C49
:1029B00009D1032D07D802382200290000F030FA8F
:1029C0002000034B1D6070BD0900002004000020A2
:1029D0000C0000201023064A10B5116803200B4399
:1029E0001360FFF7D3FFFFF7B5FD002010BDC04611
:1029F00000200240034A044B11681B785B181360E7
:102A00007047C0463401002009000020014B1868BF
:102A10007047C04634010020002373B503210193A1
:102A2000036804009A680A40012A07D11968114214
:102A300001D0002076BDDA681204FAD499681B4AE6
:102A4000114208D010230120A26B1343A363E36B50
:102A50000343E363EEE7012299680A439A60144B4B
:102A600014491868FDF75AFB0190019B002B19D1FE
:102A7000FFF7CCFF0125060023681B682B42D8D145
:102A8000FFF7C4FF801B0228F6D923681B682B427E
:102A9000F2D11023A26B01201343A363E36B2B43FA
:102AA000E363C7E7019B013B0193DEE7170000806A
:102AB0000400002040420F0070B504000120002CEB
:102AC0007ED0A36B002B06D122003432E3632000BA
:102AD0001370FFF7B5FAA36BDB0600D584E022681C
:102AE00093685B0700D57FE0A16B424B194006332A
:102AF000FF330B430321A36393680B40012B05D1E4
:102B0000116819420ED1D3681B040BD41821D36865
:102B10008B43A1680B43D360136961689B009B08DA
:102B20000B431361D36834490B40D360237E607E2E
:102B30009B03C0030343A17EE068034348030343B0
:102B4000601DC07F40000343A06A0138451EA841B4
:102B50000003034320690238454268418000034373
:102B6000E07E012804D100292BD1802149020B43AA
:102B7000C220E169FF30814202D0206A01430B4349
:102B80008020D16840051943D160E16A814202D0BA
:102B9000481E062807D8072550692940A8435061D8
:102BA000506901435161D26814490A409A4210D1D8
:102BB00000200323E063A26B9A43023B1343A36309
:102BC00070BD2021A56B2943A163E16B0843E0633D
:102BD000CEE712230120A26B9A43023B1343A36367
:102BE000E36B0343E363EBE71023A26B0120134382
:102BF000A363E5E7FDFEFFFF1902FEFFE7FF3F834A
:102C0000F7B5036804009B680E00022001925B0781
:102C100030D4270034373B78012B2BD001233B7075
:102C2000637E012B27D1A26B164B00251A4080230F
:102C30005B001343A363E5633D70206B124B216877
:102C40008362124BC362124B03631C230B604A68FE
:102C50000C3B13434B600123CA681343CB60320023
:102C6000019B403100F05EF904232800226891683E
:102C70000B439360FEBD2000FFF7CEFE0028D2D0AC
:102C8000F8E7C046FEF0FFFF992C00080B2D000866
:102C9000172D0008704700005022436A10B5996B49
:102CA00011422BD1996BB132FF320A43C0219A6392
:102CB0001A680901D068084213D1997E002910D101
:102CC000116809070DD5916849070ED40C20516889
:102CD00081435160996B0B4A11400432FF320A4321
:102CE0009A631800FFF7D6FF10BD2022996B0A43A4
:102CF0009A630122D96B0A43DA63F2E71B6B1B6B01
:102D00009847F1E7FEFEFFFF704710B5406AFFF7F6
:102D1000FBFF10BD70474023406A10B5826B134320
:102D200083630423C26B1343C363FFF7F3FF10BD38
:102D30000022F0B5040085B00392C26A34340092D8
:102D4000227803000220012A2ED0013820701A6850
:102D5000042597683E002E4001962F4251D10D6800
:102D60002A4F2B004E68A840103BBE4238D0976ACD
:102D7000009E384390628020400586420FD0013E7D
:102D8000062E0CD90720566989680640B14206D044
:102D90005669014086435661566931435161012BA2
:102DA00004D900200023237005B0F0BD184A80210B
:102DB0001368102D12D0C9030B431360102DF0D1EE
:102DC000144B15491868FDF7A9F90A2343430393E7
:102DD000039B002BE5D0039B013BF8E70904EBE7DD
:102DE000916A81439162012BDBD858424341084AE2
:102DF0005B420A489B0D11689B051B180B40136032
:102E0000CFE72022996B0A439A63CBE701100000B9
:102E1000082701400400002040420F00FFFFBFFFD1
:102E200030B5FF2503242A000440E400A2408901B4
:102E30002940D243A140C3B200280ADBC0240B4B77
:102E400080088000C018A400035913400B430351AD
:102E500030BD0F200340083B05489B089B001B1812
:102E6000D86902400A43DA61F2E7C04600E100E0B7
:102E700000ED00E0002805DB1F2318401E3B8340C7
:102E8000014A13607047C04600E100E08022431E03
:102E90005204012093420DD2C021074A07485360D3
:102EA000036A09061B021B0A0B4303620020072367
:102EB000906013607047C04610E000E000ED00E055
:102EC00070B504000120002C24D00223A51CEB7750
:102ED0002068114B0268A1681A4063680B43E168DF
:102EE0000B4321690B4361690B43A1690B43E16902
:102EF0000B4313430360094B1421C018FDF70EF96F
:102F0000074B80002064E36300200123A063E418E2
:102F1000EB77E07770BDC0460FC0FFFFF8FFFDBF45
:102F200000000240F7B5451C0193EB7F040002202E
:102F3000012B27D001232718EB77FB7F00269C4627
:102F40006046DBB2012828D10130F8772068A663FB
:102F50000568266C9D43B3400560E56B6B60019B83
:102F600043606368102B0ED18260C160E36A02681F
:102F7000002B0BD00E23134303600123026813437D
:102F800003600020FEBD8160C260EFE70A231343A7
:102F90000422036003689343EEE70220EE77F1E733
:102FA000F8B504273E00016CC26B8E4015680368BB
:102FB0001C6835420DD03C420BD01968890602D4FA
:102FC0001968B9431960C36A5660002B19D0984735
:102FD00017E002273E008E40354213D03C4211D00C
:102FE0001968890606D40A241968A14319600121C9
:102FF000C319D97756600022431CDA77836A93425B
:10300000E5D1F8BD082637008F403D42F9D0344263
:10301000F7D00E251C68AC431C6001231C008C40BB
:103020005460821C8363D3770022C318DA77036B62
:10303000E5E700000023F0B587B00A681400DC4023
:1030400001D107B0F0BD012514009D402C40009433
:103050002A4200D198E04A685F0094460322644601
:1030600022400324BC40E4430194541E012C2ED87A
:103070008668019C2640CC68BC4034438460446828
:103080000126AC4325006446240934409C402C436F
:103090004460C568019C25408C68BC402C43C460DA
:1030A000022A16D107250F261D40AD00AE40DC08D0
:1030B000A40004190294246A03962600039CA643E4
:1030C00034000E69AE402643029C266201E0032ACA
:1030D000DFD1BA400468019D25402A43C024026024
:1030E0006246A40222424FD00125284A90279469C3
:1030F000FF052C43946192699C082A400592059A29
:10310000234AA400A4180F2202351D40AD00AA4096
:10311000A66896430022B8420CD01E4F0132B84236
:1031200008D01D4F0132B84204D01C4F0132B842C2
:1031300000D00232AA4067463243A260184A009C7F
:103140009668009DE4433543FF0201D435002540D5
:1031500067469560D668009D3543BF0201D43500AF
:1031600025406746D5605668009D3543BF0301D4AE
:1031700035002540674655601568009E2E43FF03C5
:1031800001D425402E001660013356E7001002409E
:10319000000001400004004800080048000C0048FE
:1031A00000040140002A01D0816170478162FCE780
:1031B000F0B5040085B0002845D00368DB072FD4A4
:1031C00023689B0700D581E023681B0700D5BCE07E
:1031D00023685B0700D5DFE02368DB061AD5626948
:1031E0000423B44D012A00D048E1696B02270B4348
:1031F0006B636B6B1A436A63FFF708FC06006B6B2B
:103200003B4200D133E1F8216A6BA3698A43DB00BA
:1032100013436B63236A002B00D057E100202AE0A0
:103220000C22A44D6B681340042B06D06B6813402E
:10323000082B0AD16B68DB0307D52B689B03BFD52E
:103240006368002BBCD1012015E06368012B14D109
:1032500080232A685B0213432B60FFF7D7FB80278C
:103260000600BF022B683B42AAD1FFF7CFFB801BB1
:103270006428F7D9032005B0F0BD002B16D12B68C8
:103280008D4A802713402B602B688C4ABF02134065
:103290002B60FFF7BBFB06002B683B4200D18FE79A
:1032A000FFF7B4FB801B6428F6D9E3E7052B05D1B3
:1032B00080232A68DB0213432B60C9E72B687E4A10
:1032C00013402B602B687D4A1340C5E70C22794DD3
:1032D0006B68134206D06B681340082B10D16B68E3
:1032E000DB030DD42B689B0702D5E368012BAAD121
:1032F000F8212A6823698A43DB0013432B6063E7C4
:10330000E2680123002A0FD02A68022713432B60AA
:10331000FFF77CFB06002B683B42E9D1FFF776FB09
:10332000801B0228F7D9A5E72A6802279A432A605A
:10333000FFF76CFB06002B683B4200D144E7FFF728
:1033400065FB801B0228F6D994E7E2690123594DF9
:10335000002A10D06A6A022713436B62FFF756FBFC
:1033600006006B6A3B4200D032E7FFF74FFB801B41
:103370000228F6D97EE76A6A02279A436A62FFF753
:1033800045FB06006B6A3B4200D121E7FFF73EFB9D
:10339000801B0228F6D96DE780220021454D520599
:1033A000EB690091134208D1EB691343EB61EB69C0
:1033B00013400393039B012300938027404E7F001B
:1033C00033683B4215D0A368012B22D12A6A1343EC
:1033D0002B62FFF71BFB022706002B6A3B423FD004
:1033E000009B012B00D0F7E6EB69364A1340EB61F6
:1033F000F2E633683B433360FFF708FB0190336824
:103400003B42E0D1FFF702FB019BC01A6428F6D9CA
:1034100030E70122002B14D12B6A022793432B6241
:103420002B6A033293432B62FFF7F0FA06002B6AF4
:103430003B42D5D0FFF7EAFA234B801B9842F6D9DE
:1034400018E7052B05D1296A013B0B432B622B6A38
:10345000BDE72B6A934304222B622B6A9343B7E7A1
:10346000FFF7D4FA184B801B9842B6D902E7FFF752
:10347000CDFA801B022800D8C1E6FBE6053203D155
:103480006A6B9A436A63BEE66A6B022713430122A2
:103490006B636B6B93436B63FFF7B8FA06006B6B60
:1034A0003B4200D1B6E6FFF7B1FA801B0228F6D9FD
:1034B000E0E6C04600100240FFFFFEFFFFFFFBFFFB
:1034C00000700040FFFFFFEF881300000C21344D17
:1034D0006A680A40082A47D0324A022B32D12B6848
:1034E000802713402B60FFF791FA0600BF042B687A
:1034F0003B4221D10F22EB6A80269343E26AB60455
:103500001343EB62616AA36A6A680B4326490A4067
:1035100013436B6080232A685B0413432B60FFF71F
:1035200075FA04002B68334200D077E6FFF76EFA95
:10353000001B0228F6D99DE6FFF768FA801B0228D7
:10354000D5D997E62B68802613402B60FFF75EFAEB
:103550000400B6042B68334200D15FE6FFF756FA49
:10356000001B0228F6D985E61800012B00D182E65F
:1035700080216B68606A4902EA6A1940814200D082
:1035800061E60F210A40E16A8A4200D05BE6F02240
:1035900092031340A26A934200D13FE653E6C0462D
:1035A00000100240FFFFFFFEFFFFC2FF0C2270B5BC
:1035B0000C4D6B681A40082A11D10F200A499A0C49
:1035C00002408C5CEA6ADB0307D508490240895C4B
:1035D0000748FCF7A3FD604370BD0648FBE70448BD
:1035E000FAE7C04600100240963B0008A63B0008E0
:1035F00000127A0000093D00F7B504000E00002813
:1036000001D10120FEBD0122374D2B6813408B42B2
:103610001CD32268930722D4D2072FD401232A680F
:103620001A40B24251D82368304D5B0754D4FFF79B
:10363000BDFF6B682E4A1B061B0FD35C2D49D8407B
:1036400008600320FFF7A2F90020DBE72B68934313
:103650000B432B602B6813408B42D2D1D9E723490F
:10366000530704D5E0234868DB0003434B60F02098
:103670004B688343A06803434B60CDE71B4F6268F0
:103680003B68012A19D19B03BBD503217B688B437F
:1036900013437B60FFF7BAF901900C237A681A4054
:1036A00063689B009A42B9D0FFF7B0F9019BC01A3A
:1036B000114B9842F1D90320A4E7022A02D19B01C1
:1036C000E3D49EE79B07E0D49BE72A689A432A60ED
:1036D0002A681A42A7D094E76B68084A1340E26848
:1036E00013436B60A3E7C046002002400010024075
:1036F000863B00080400002088130000FFF8FFFF4D
:103700000200030001203D321178814215D10221CF
:1037100011701B68DA680243DA600B4A934202D0E8
:103720000A4A93420AD107219A6800200A40062AD1
:1037300003D0012219680A431A6070471A680243CD
:103740001A600020F9E7C046002C01400004004048
:1037500070477047704770470222036870B5DD6894
:103760001E69040016420DD015420BD0053A1A61AD
:10377000043202779B699B0700D171E0FFF7E9FFF4
:103780000023237704231E4211D01D420FD00522AF
:10379000236852421A61073222779A69C0239B003C
:1037A00020001A4262D0FFF7D4FF002323770823BA
:1037B0001E420FD01D420DD00922236852421A61C9
:1037C0000D322277DB6920009B0755D0FFF7C1FF40
:1037D0000023237710231E4211D01D420FD0112247
:1037E000236852421A6119322277DA69C0239B009A
:1037F00020001A4246D0FFF7ACFF002323770123B5
:103800001E4208D01D4206D00222236852422000E8
:103810001A61FEF729FF80231E4208D01D4206D000
:1038200081222368524220001A6100F06EF9402381
:103830001E4208D01D4206D0412223685242200079
:103840001A61FFF788FF20231E4208D01D4206D0D0
:1038500021222368524220001A6100F055F970BD00
:10386000FFF776FF2000FFF775FF89E7FFF770FF8E
:103870002000FFF76FFF98E7FFF76AFF2000FFF7D0
:1038800069FFA5E7FFF764FF2000FFF763FFB4E7D8
:103890001C4A10B50368904202D01B4CA04208D1CC
:1038A0007024A3434C68234390420BD0164CA04293
:1038B00008D0164CA04205D0154CA04202D0154CA1
:1038C000A04203D1144C1C40CB6823438024A34363
:1038D0004C69234303608B68C3620B688362904228
:1038E00005D00B4B984202D00A4B984201D10B698C
:1038F0000363012242610369134202D003699343C7
:10390000036110BD002C0140000400400020004075
:103910000044014000480140FFFCFFFF70B5040077
:103920000120002C21D025003D352B78DAB2002B68
:1039300005D123003C3320001A70FEF779FE0223E4
:103940002B702068211DFFF7A3FF22000123002018
:10395000463213704534083A137053709370D37025
:1039600013715371937123702B7070BD30B58468DF
:10397000034D0A431B022C4013432343836030BD95
:10398000FF00FFFFF8B5050002243C352A7803004C
:103990002000012A1CD01E0001223D362A703470FE
:1039A0001C684348A3680340A3600B68602B52D097
:1039B0002FD8402B66D014D8202B0CD009D810213A
:1039C0001800884307D010000123337000232B70A8
:1039D000F8BD302BF7D17021A2688A431343072228
:1039E0002BE0502BEFD14868CB68216A276A1B0176
:1039F00097432762F027A269BA4313430A229143EF
:103A00000A00A361702302432262A2689A43193B11
:103A100013E0802700207F01BB42D5D080208001A9
:103A200083420ED01000702BCED1CB684A682000A4
:103A30008968FFF79BFF7723A26813430020A360E8
:103A4000C2E7CB684A6820008968FFF78FFF8023B0
:103A5000A268DB01F1E710274B68CA68216A206A77
:103A60001203B8432062A069124F1B013840024381
:103A7000A02081430B43A26123627023A2689A4372
:103A8000093BDAE74868CB68216A276A1B0197433C
:103A90002762F027A269BA4313430A2291430A001E
:103AA000A361702302432262A2689A43293BC4E7C0
:103AB0008800FFFFFF0FFFFF70B5040002223C34B7
:103AC000257803001000012D19D01D0070263D350A
:103AD0002A701B6858689A68B0430E683043586073
:103AE0000748834202D00748834204D180204968B6
:103AF00082430A439A60012300202B70207070BD1E
:103B0000002C0140000400407047704703008218F9
:103B1000934200D1704719700133F9E770B5002660
:103B20000C4C0D4D641BA410A64209D1002600F0D8
:103B300019F80A4C0A4D641BA410A64205D170BDA9
:103B4000B300EB5898470136EEE7B300EB589847BF
:103B50000136F2E7B83B0008B83B0008BC3B000860
:103B6000B83B0008F8B5C046F8BC08BC9E46704794
:0C3B7000F8B5C046F8BC08BC9E46704783
:103B7C003F065B4F666D7D077F6F00000000000005
:103B8C0000000102030406070809020304050607E6
:103B9C0008090A0B0C0D0E0F101001020304050688
:0C3BAC000708090A0B0C0D0E0F1000009A
:043BB800E900000818
:043BBC00C10000083C
:103BC0009A99193F00127A000101000004000000D8
:04000005080029398D
:00000001FF
