:020000040800F2
:1000000000100020692D00088D28000893280008A2
:1000100000000000000000000000000000000000E0
:100020000000000000000000000000009928000807
:100030000000000000000000A3280008AD28000810
:10004000B92D000800000000B92D0008B92D0008E6
:10005000B92D0008B92D0008B92D0008B92D0008E8
:1000600000000000BD280008B92D0008B92D0008C7
:10007000B92D0008B92D0008B92D000800000000B6
:10008000D52800080000000000000000B92D00087D
:1000900000000000B92D0008B92D0008B92D000896
:1000A00000000000B92D000800000000B92D000874
:1000B0000000000000000000000000000000000040
:1000C00010B5064C2378002B07D1054B002B02D02E
:1000D000044800E000BF0123237010BD140000207D
:1000E00000000000EC4E0008044B10B5002B03D0BC
:1000F0000349044800E000BF10BDC04600000000F6
:1001000018000020EC4E0008002243088B4274D3F4
:1001100003098B425FD3030A8B4244D3030B8B4208
:1001200028D3030C8B420DD3FF22090212BA030C11
:100130008B4202D31212090265D0030B8B4219D3F2
:1001400000E0090AC30B8B4201D3CB03C01A524112
:10015000830B8B4201D38B03C01A5241430B8B425A
:1001600001D34B03C01A5241030B8B4201D30B0343
:10017000C01A5241C30A8B4201D3CB02C01A52416A
:10018000830A8B4201D38B02C01A5241430A8B422D
:1001900001D34B02C01A5241030A8B4201D30B0216
:1001A000C01A5241CDD2C3098B4201D3CB01C01A30
:1001B000524183098B4201D38B01C01A524143093A
:1001C0008B4201D34B01C01A524103098B4201D328
:1001D0000B01C01A5241C3088B4201D3CB00C01A95
:1001E000524183088B4201D38B00C01A524143080D
:1001F0008B4201D34B00C01A5241411A00D2014632
:10020000524110467047FFE701B5002000F006F8A4
:1002100002BDC0460029F7D076E770477047C04658
:10022000844608006146FFE71FB500F0B7F80028D4
:1002300001D40021C8421FBD10B500F043F8404270
:10024000013010BD10B500F0A9F8002801DB002036
:1002500010BD012010BDC04610B500F09FF8002869
:1002600001DD002010BD012010BDC04610B500F01A
:100270004FF8002801DC002010BD012010BDC04651
:1002800010B500F045F8002801DA002010BD01206B
:1002900010BDC0469E2110B5C905041CFFF7F0FF34
:1002A000002803D1201C00F0ABFB10BD9E21201CB8
:1002B000C90500F005FA00F0A3FB80231B069C464D
:1002C0006044F2E770B5420045024E024C00C30F95
:1002D0006D0A0120120E760A240EC90FFF2A06D0DD
:1002E000FF2C03D0A24201D1B54206D070BD002D33
:1002F000FCD1FF2CFAD1002EF8D18B4206D0012080
:10030000002AF3D12800431E9841EFE70020EDE7D3
:1003100070B5420045024E024C00C30F6D0A120E2A
:10032000760A240EC80FFF2A1BD0FF2C0ED0002AFD
:100330001BD1002C01D1002E1CD0002D0CD08342EB
:100340001CD00221581E0840013870BD002E22D159
:10035000002AF4D1002DF2D10028F6D1012040422C
:10036000F3E7002D17D1FF2CF0D0002CE7D1002EA1
:10037000E5D1E6E70020002DE7D0E2E7A24205DC68
:10038000EADBB54202D8E7D30020DEE7434258411A
:1003900040000138D9E702204042D6E770B542005C
:1003A00045024E024C00C30F6D0A120E760A240E4F
:1003B000C80FFF2A0BD0FF2C0DD0002A1FD1002C14
:1003C00016D1002E14D10020002D10D009E0002DF0
:1003D0000CD1FF2C13D1002E08D1002A08D0834263
:1003E00012D00221581E0840013800E0022070BDE2
:1003F000002DF4D10028FAD101204042F7E7002C6B
:10040000EDD1002EEBD1ECE7A24205DCF2DBB542E8
:1004100002D8EFD30020EAE74342584140000138B8
:10042000E5E7C04643025B0AF0B54F4646469946AB
:10043000D646C30F45009846C0B54B460F1C2D0E3F
:1004400000D1CBE0FF2D00D1CFE08022DB00D20431
:100450001A430023914600269A467F3D7C027B008A
:10046000640A1B0EFF0F002B00D1A9E0FF2B11D057
:100470008022E400D204144342467F3B5B197A4059
:100480000020D2B25D1C0A2E13DD3A000B2E47D09D
:1004900047463FE02B00FF33002C1ED102221643BB
:1004A000424601357A40D2B2FF350A2E00DDE4E043
:1004B0000220022E1CDC013E012E42D802283DD033
:1004C000012866D100200021C0050843D20710434F
:1004D000E0BCBA46B146A846F0BD032216434246E8
:1004E00001357A40D2B2FF350A2E00DDE4E0032068
:1004F0000121B140A626F60031420AD19026B6006D
:10050000314216D1B93EFF3E0E421AD0A146824674
:1005100000E0170053463A00022B0FD04C465046DD
:100520000328CDD18021C90321434902FF20490A74
:10053000CAE780210022FF20C903C5E7FF20002170
:10054000C2E7200C49462404240C27000E0C0904A1
:10055000090C74434F4346434843390C00190918AA
:100560008C4203D980204002844666443F0408043C
:100570003F0CC0198401671EBC41090C800E89190B
:10058000044389010C43090171D5012361081C4012
:100590000C432B007F33002B51DD610704D00F216A
:1005A0002140042900D00434210103D5434B1C40D1
:1005B0002B008033FE2BC1DCA101490AD8B283E7AE
:1005C000002C2CD1012342461E432B007A400120EF
:1005D000D2B25D1C0A2E00DD57E76AE7002B10D16E
:1005E0000123042600259A4638E7002B04D1022374
:1005F0000826FF259A4631E703230C26FF259A4655
:100600002CE7484601F0BEFC4A46431F76259A4037
:1006100000236D42914600269A462D1A1EE72000BF
:1006200001F0B0FC4246431F9C402B1A763B7A40B7
:100630000020D2B25D1C0A2E00DD26E739E7012139
:10064000CB1A1B2B00DD3DE79E352100AC40D94085
:10065000631E9C4121434B0704D00F230B40042B06
:1006600000D004314B0104D5012000212CE71D00EE
:100670008FE789010020490A26E702230F2E0CD1BB
:1006800080214B46C9030B420DD00C420BD12143B4
:1006900049023A00FF20490A16E70B2E00D0F7E680
:1006A000A1469A4636E780214B46C90319434902C1
:1006B0004246FF20490A07E70323DFE7FFFFFFF772
:1006C000F0B5C64643025B0A4500DA00C40F480293
:1006D0004F009446420A1E00904600B52D0E3F0E74
:1006E000C90F8009FF2F59D0012251408C4239D0C7
:1006F000EA1B002A58DD002F68D0FF2D00D1D1E081
:100700008023DB0418431B2A00DCE3E0012362465C
:10071000D31A5A0100D4ACE09B019E09300001F0CD
:1007200031FC330005388340854200DCC6E0B24A24
:100730002D1A13405A0704D00F221A40042A00D061
:1007400004335A0100D497E06A1CFE2D00D184E0E6
:100750009B015E0AD2B2D0053043E407204380BC3F
:10076000B846F0BDEA1B002A41DD002F6BD0FF2DFB
:1007700000D197E08023DB0418431B2A00DCCCE087
:10078000012363445A0174D50135FF2D65D0012240
:100790009A491A405B080B401343CBE700281FD04F
:1007A0008C4222D02A00FF3A002A35D07A1B002D35
:1007B00000D099E06346002B00D1DDE0531E012AF2
:1007C00000D105E1FF2A6BD01A0094E0002873D015
:1007D000511E012A00D1DFE0FF2A63D00A0092E710
:1007E00001225140A14200D082E72A00FF3A002AAC
:1007F00036D07A1B002D00D1AAE0FF2F00D1DAE01D
:1008000080236146DB0419438C461B2A00DCD4E0BC
:1008100001233D001B18B5E7FE276A1C174271D162
:10082000002D00D09EE06346002B00D1D5E00022D1
:10083000002800D18FE71B1A5E0100D4D6E0634682
:100840000C00C31A76E7002836D0511E012A00D1C9
:100850009AE0FF2A26D00A008FE7FF2200267AE7D7
:10086000FE276A1C174262D0FF2AF6D015006044AA
:1008700043085A0700D05FE7DB08FF2D12D05B0268
:100880005E0AEAB267E76246002A00D193E00028D8
:1008900008D08022D203134204D04046104201D136
:1008A0000C004346002BD8D08026F6031E43760268
:1008B000FF22760A4FE743461500DEE72022401B61
:1008C0000130121A19009340C1405A1E934100256D
:1008D0000B432FE720239B1A010098400300D140CF
:1008E0005A1E93410B4312E7FF2FD9D08023644651
:1008F000DB041C43A4461B2A52DD01230C003D00EF
:10090000C31A06E763461E1A730139D4002E00D0BD
:1009100004E70024002200261DE720239B1A010083
:1009200098400300D1405A1E93410B4329E7002D04
:10093000A9D16346002B56D00022002800D10AE737
:10094000030063445A0194D52B4A0135134090E7C4
:100950006346002BAFD0531E012A15D0FF2A2AD0A0
:100960001A0052E76246002A91D1002898D18026C9
:100970000024FF22F603EEE60C00434615007CE758
:1009800063460C00C61AC9E60300634401255A01F8
:1009900000D46EE70225FAE6634601251B1AB8E685
:1009A00064462023D4409B1A62469A4013005A1E84
:1009B00093412343A2E7434674E761462023D14095
:1009C0009B1A62469A4013005A1E93410B4320E73C
:1009D00063460C000125C31A9BE6002899D00C0041
:1009E00046460022B7E646460022B4E6002B00D079
:1009F0003FE700240026AEE6FFFFFFFBFFFFFF7D81
:100A000041024200C30F490A0020120E7E2A03DD74
:100A10009D2A02DD094A981870478020000401438E
:100A2000952A07DC9620821AD1404842002BF3D148
:100A30000800F1E7963A9140F7E7C046FFFFFF7FD5
:100A4000F0B54F464646D6460400C0B51F000B031E
:100A500010004E005B0ACD0F610F7A001943E300CE
:100A60003C03FF0FBC46640A470F2743760D520D27
:100A7000C000B9468046B71A654500D19BE0002FFB
:100A800000DC84E0002A00D1BEE0C84A964200D1D2
:100A900024E180224C4612041443A146382F00DD85
:100AA00067E11F2F00DDD6E120224C46D21B944087
:100AB000A2464446FC402000544604434046904031
:100AC000421E90414A46FA400443891A1C1BA34225
:100AD000924152428B1A9A4653461B0200D4D4E0EC
:100AE00053465A02530A9A465346002B00D104E15A
:100AF000504601F047FA0300083B20222000D21A9A
:100B00005146D040994002009C400A43B34200DA6B
:100B100002E19B1B591C1F2900DDA7E020231000C8
:100B200026005B1A9C409840CE40CA40631E9C4100
:100B30003043924600260443630709D00F23234025
:100B4000042B05D0231DA342A4416442A2441C00EF
:100B500053461B0200D49BE0944B01369E4200D1C9
:100B6000B8E053469249E4080B4019005B07234361
:100B700072054C02240B520D1205ED0722432A4345
:100B800018001100E0BCBA46B146A846F0BD002FDF
:100B900048D0971B002E00D00EE10C001C4300D162
:100BA000B7E17C1E012F00D126E2804DAF4200D17B
:100BB000D5E1270007E1002F00DCB2E0002A47D092
:100BC0007A4A964200D189E080224C4612041443AE
:100BD000A146382F6BDC1F2F00DC6EE13A0048463F
:100BE000203AD0408446202F07D040224846D21BCE
:100BF000904002004046104380464046421E9041CD
:100C000062460400144357E04A46024300D103E120
:100C10007A1E012F00D193E1644CA74200D18AE1F2
:100C200017003BE7634C721C224200D0E0E00A0050
:100C30001A43002E00D074E1002A00D1D0E14A46C8
:100C4000024300D0E3E14A07DB081343C90829E067
:100C50004A46024300D17DE17A1E012F00D1E0E037
:100C6000524CA74200D166E11700B2E710001F3BCB
:100C7000D840202903D040235B1A9A401443631EB6
:100C80009C41002300269A460443630700D055E7A1
:100C90005246E3085207134352463700D108434AED
:100CA00097421FD009037A050C0B520D64E74246A8
:100CB0004C461443621E9441E4189C4292415242B5
:100CC00092468A4453461B02DFD5384B01369E427A
:100CD00000D0B3E03200002400234DE74A07DB08D0
:100CE0001343C9081A000A4300D100E280242403F8
:100CF0000C4324032D4A240B3EE7200001F042F967
:100D0000030018331F2B00DCF7E62200083882406E
:100D10000024B34200DBFCE6F61A254B1A4092464B
:100D20000AE7002F2BD0971B002E00D1B8E01F4CF4
:100D3000A24200D11CE1802424042143382F00DD8D
:100D40001EE11F2F00DD9EE120260C00F61B18007F
:100D5000B340B440F8405E1EB341F94004431C4325
:100D60008944444444459B415B424B449A461600A7
:100D7000A8E742464C461443621E9441A6E60D4C39
:100D8000721C224200D0A8E00A001A43002E00D0B4
:100D90000AE1002A00D15EE14A46024300D061E147
:100DA0004A07DB081343C9087CE7C046FF07000079
:100DB000FFFF7FFFFE070000CF4CA24200D1CEE034
:100DC000802424042143382F5BDC1F2F00DDDCE06E
:100DD00020250C00ED1B1E00AB40AC40FE405D1E0C
:100DE000AB413443F9401C434B465B1A99464CE0F7
:100DF0004A461C1A881AA342924152429246020065
:100E00005046121A9246120278D45346234300D019
:100E10006AE60021002545E74A07DB081343C908B5
:100E20003DE71C189C429B4149448A465B429A44D8
:100E3000534601261B0200D427E702265246AF4B39
:100E400001211A401300214062080A43DC075B08B5
:100E50009A46144370E63A004C46203AD440A446E1
:100E6000202F07D040224846D21B90400200404627
:100E7000104380464046421E90416246040014439F
:100E800024E619430C00631E9C4143461C1BA045ED
:100E90009B4149465B42CB1A9A46654616001BE6C3
:100EA0000C001C4300D1C7E07C1E012F00D1F9E0EB
:100EB000914EB7425CD0270040E720224C46404686
:100EC000D21B9440F840044340469040421E90415B
:100ED0004A46FA4004438918EEE6874CA24200D104
:100EE000F9E6181898429B4149445B42CB18DC074D
:100EF00040085B089A4616000443C6E64246D41AE8
:100F0000A04580414B464042591A0B1A9A46654605
:100F1000EAE54B464A46C0085B0765460343D108ED
:100F2000BDE6002A00D08EE04B46034317D1802156
:100F300000250903DAE64A07DB081343C908D1E6AE
:100F40001C1A4A46A3429B41891A5B42CB1A9A4615
:100F50000126C1E54A07DB081343C9089FE643465B
:100F6000D8084B464A465B0765460343D108B9E6B5
:100F70004346D8084B464A465B070343D108B1E6CF
:100F800019430C00631E9C41EBE63C000D00203C25
:100F9000E540202F03D04024E41BA1400B431C005C
:100FA000631E9C412C4370E7002AE1D04A4602436D
:100FB000C1D04A07DB0813438022C908120311423B
:100FC00008D04846C408144204D143462100DB0837
:100FD000420713435A0FDB005207DB08134381E635
:100FE0004B46034300D114E74B464A46C0085B0713
:100FF00065460343D10855E6C41AA04580414B46D7
:101000004042591A0B1A9A466546012664E51C1A95
:101010004A46A34280418A1A4042121A924612025C
:1010200049D54246D41AA04580414B464042591A00
:101030000B1A9A4665467FE54B464A46C0085B0751
:101040000343D1082BE64A46DB08024338D14A075E
:101050001343C90846E64B464A46C0085B070343AC
:10106000D1081FE61C189C429B4149448A465B42BA
:101070009A4453461B0200D407E652461F4B0126F2
:101080001A40924601E63C000E00203CE640202F2C
:1010900003D04024E41BA1400B431C00631E9C4171
:1010A00034435EE643448342804149448A46404299
:1010B0001C008244BCE65346234300D1A9E6E4E584
:1010C0004A0713438022C9081203114209D0484637
:1010D000C408144205D1434665462100DB08420797
:1010E00013435A0FDB00DB0852071343FAE50023D2
:1010F000014A1C0040E5C046FF070000FFFF7FFFDC
:10110000F0B54546DE4657464E46E0B51F000B0398
:101110001B0B9B464D00CB0F04009146984687B0B1
:101120006D0D00D1CDE1CE4B9D4200D1E9E15A4693
:10113000430FD2001343802212041A43C3009A467D
:10114000C84B93469C4600230026654400933C030D
:101150007B004846240B5B0DFF0F002B00D189E17B
:10116000BF4A934219D0420FE40022438024240452
:101170001443BC4A00219446424663445B190193E0
:10118000019B7A400133C000D2B202930A2E1CDDCB
:101190003A000B2E5ED0474656E04946B04B2143FD
:1011A000EB18019300292AD18020022200012B0094
:1011B00084461643424663447A40D2B202930A2ED2
:1011C00000DD31E2002000240221022E26DC013E57
:1011D000012E52D802294CD0012900D018E1002359
:1011E000002400251B052343D207134328001900C0
:1011F00007B0F0BCBB46B246A946A046F0BD802170
:10120000032209012B008C461643424663447A4070
:10121000D2B202930A2E00DD28E203210125B54057
:10122000AC46A6266346F600354033420BD19026E5
:10123000B600334218D1B93EFF3E1E421DD0A34630
:101240008246009100E0170000993A00022910D070
:101250005C4650460329BFD180231B031C43240353
:1012600005007F4B240BBDE7802400227C4B240328
:10127000B8E7002400257A4BB4E753461E04360C29
:101280001F0C3300010C0004000C4343984603007C
:101290007B43994633004B439C4643460D001B0C51
:1012A0009A467D43CC44D4440095E14504D980233B
:1012B0005B0299464D44009563461B0C1D00634636
:1012C0001B049C4643461B041B0C98466346434440
:1012D0000393230C984633002404240C63439C4658
:1012E00023007B43994643465E435F434E44634637
:1012F000B2461E0C5644B14503D980235B02994681
:101300004F44330C99463B004B4405936346AC462F
:101310001F043F0C3604F619B444634604935B463D
:101320001B0C9C465B461F043F0C3B004343994605
:10133000634643439A464B4660461B0C9B464843D4
:101340007943514459448A4503D980235B029A4624
:1013500050440B0C9A464B461B041B0C99463B0011
:101360006343090445464944994663465C436B43DD
:101370009C464B461B0C98466F433F1947445044CC
:10138000BC4203D980235B029846C444049B009D61
:1013900098464544B542B641734298464B461E04B2
:1013A000059B3C049946360CA4194C44A14683463F
:1013B0006E18C1448E428941CB445D4649426D1846
:1013C0009C42A441C1459B41834580418D42894156
:1013D0005B4264421C434042039B4942014370020A
:1013E0003F0C1843E419471EB84164186444F60DD5
:1013F00061023043EC0D6E020C433043C90100D44E
:10140000F1E00121430801400B43E0071843640861
:101410001549029B8C466344002B00DC97E0410792
:1014200009D00F210140042905D0011D81428041CE
:10143000404224180800E10106D58021C9008C46ED
:101440000A4B1C40029B634409498B4200DD10E7B4
:101450006107C50864025B050D43240B5B0DC1E603
:10146000FF07000001FCFFFFFF030000FFFFFFFE7E
:10147000FE0700004B46234359D0002C00D1A3E0C7
:10148000200000F07FFD010003000B391D22521ADD
:1014900049461800D1404A4608388240844010002E
:1014A0000C43744AEB1A9446424663440193019BF1
:1014B0007A4001330021D2B202930A2E00DD67E6A2
:1014C00083E65B4603439A462AD05B46002B6DD0E9
:1014D000584600F057FD010003000B391D22521A37
:1014E000210018005D46D140083885400A0084403C
:1014F0002A439346A2465F4D0026ED1A002300932F
:1015000025E65B4603439A4605D100239B460233FA
:10151000082600931BE6032382460C26009316E65A
:1015200000239B4601330426002500930FE6424624
:10153000013301951E43019B7A40013300240020B2
:101540000121D2B202930A2E00DD21E63DE60121FF
:10155000C91A382900DD42E61F2947DD1F2625006C
:101560007642F31ADD402B00202905D04249029D26
:101570008C466544AC402043411E884118430723F4
:101580001D000024054003424AD00F2300240340DD
:10159000042B42D0031D834280414042241818008E
:1015A00023023AD50123002400251BE600F0EAFCC3
:1015B00001000300153120331C298FDD083800227B
:1015C00084409246A34696E700F0DCFC010003004D
:1015D000153120331C2900DC58E702004C46083A3C
:1015E000002094405DE7019B029311E7234B260006
:1015F0009C460300029DCB406544AE401E43030061
:10160000AB40581E834130001843CC404307C7D03D
:101610000F230340042BBDD1C2E765076402240BEE
:10162000C00800230543DDE5002502230F2E0CD161
:1016300080245B46240323420ED021420CD10C436C
:1016400024033A000E4B240BCCE50B2E00D0A2E570
:101650008B46AA460093F7E580245B4624031C438F
:10166000240342465546064B240BBBE54D4621005C
:101670000323DBE70DFCFFFF3E0400001E04000017
:10168000FF070000F0B557464E464546DE46E0B53A
:101690000D000400190010002B035B0A620F1A43AF
:1016A000E3000C03640A470F2743D04C6E009146B9
:1016B00083B04A00C0009846A246760DED0F520D49
:1016C000C90F0190A24200D1B9E0012461408B46CC
:1016D0008D4200D18DE0B41AA446002C00DCB7E0A6
:1016E000002A00D1CBE0C14A964200D186E1802297
:1016F000120417436246382A00DDA4E11F2A00DDE8
:101700001DE2614620223C00521A010090409440A4
:10171000421E90416246A0466446D7404A46E14098
:101720004446D21B91460C4304431C1BA3429241E6
:101730004B4652429B1A9A4653461B0200D42BE159
:1017400053465A02530A9A465346002B00D166E18B
:10175000504600F017FC0300083B20222000D21A5C
:101760005146D040994002009C400A439E4200DD11
:1017700064E19B1B591C1F2900DDFEE020231000A3
:1017800026005B1A9C409840CE40CA40631E9C4194
:101790003043924600260443630709D00F232340B9
:1017A000042B05D0231DA342A4416442A2441C0083
:1017B00053461B0200D4F2E08C4B01369E4200D10E
:1017C0000FE153468A49E4080B4019005B072343A5
:1017D00072054C02240B520D12052243ED072A43D9
:1017E0001800110003B0F0BCBB46B246A946A046A3
:1017F000F0BDB41AA446002C59DD002A00D1B0E097
:10180000564500D1FAE08022120417436246382A76
:1018100000DDD4E01F2A00DCC0E13900203AD140CD
:101820006246202A06D064464022121B3C009440A7
:1018300004430194019C621E94410C43C3E03C00AC
:1018400004432BD08B468D422ED06A4CA446B44420
:101850006446002C5FD0941BA446002E00D020E1EB
:101860004C461C4300D1C7E161464C1E012900D102
:1018700023E25E4DAC4500D1D8E1A4461AE13A001E
:10188000024300D1E4E02200013A012C00D1C3E17F
:1018900056498C4200D1B1E094462BE701246140C7
:1018A0008B468D4200D016E752498C46B4446446BC
:1018B000002C00D1D3E0911B8C46002E00D15EE1BC
:1018C0004A498A4200D1BEE180214C4609040C43BA
:1018D000A1466146382900DDBAE11F2900DD27E273
:1018E0002024641A4946A1401E0088466146A34050
:1018F000CE4041465C1EA341314319430C00634670
:101900004946D9407F18241884429B415B429A463D
:101910001600BA445DE0384C721C224200D0DFE071
:101920004A461A43002E00D05CE1002A00D1CFE1E4
:101930003A00024300D17FE11C1A4A46A342894182
:10194000D21B4942521A9246120200D40AE2C41A29
:10195000A04280414B464042FF1A3B1A9A465D46E0
:101960001AE73A00024373D02200013A012C00D159
:10197000CBE0544542D0944648E710001F3BD84086
:10198000202903D040235B1A9A401443631E9C41D4
:10199000002300269A460443630700D0FEE6524621
:1019A000E308520713435246B446D2080F498C4508
:1019B0002AD01203140B62465205520D0CE73C006C
:1019C0000443621E9441E4189C42924152424A44AC
:1019D000924653461B02DFD5044B01369E4200D08F
:1019E000A0E0320000240023F6E6C046FF07000016
:1019F000FFFF7FFF01F8FFFFFE070000DB084A46FC
:101A0000520713434A46D2081900114300D1B5E1E9
:101A10008024240314432403D54A240BDCE620004D
:101A200000F0B0FA030018331F2B00DC95E622000B
:101A30000838824000249E4200DC9AE6F61ACD4B1C
:101A40001A409246A8E63C000443621E94416CE6AC
:101A50004A46DB08520713434A46D208A6E7C64C5B
:101A6000721C224200D0ACE04A461A43002E00D03D
:101A700005E1002A00D156E13A00024300D1DBE043
:101A80001C189C429B414F44BA465B429A445346C1
:101A90001B0200D480E75246B64B01261A409246FC
:101AA0007AE7B34CA24200D1C0E080244D46240422
:101AB0002543A9466446382C53DC61461F2C00DDC3
:101AC000CDE020251E002D1B4C46AB40AC40CE4047
:101AD0005D1EAB41344323434C46CC403F1B45E0A5
:101AE0004A461C1AD11BA3429241524292460A0016
:101AF0005146521A9246120200D583E053462343C0
:101B000000D021E60022002553E71C189C429B418F
:101B10004F44BA465B429A44534601261B0200D406
:101B20003AE702265246934B01211A401300214006
:101B300062080A43DC075B089A4614432CE6390026
:101B4000203AD1406246202A06D064464022121B29
:101B50003C00944004430194019C621E94410C4358
:101B6000E3E5494619430B005C1EA341C41AA04299
:101B70009B415B42FB1A9A465D461600DCE54946EE
:101B8000194300D1AEE0614664460139012C00D111
:101B9000E0E0774CA44556D08C469AE66146202278
:101BA0003C00521A944001009040A0466446421EF8
:101BB00090416246E1404446D7400C430443B94457
:101BC00001E76B498A4200D10CE7181898429B4103
:101BD0004F445B42FB18DC0740085B089A4616003E
:101BE0000443D9E6002A00D081E03B0003431DD125
:101BF0008022002512030BE7C0087B075D460343E4
:101C0000FA08D3E6C41AA04280414B464042FF1A6C
:101C10003B1A9A465D4697E51C1A4A46A3429B41E9
:101C2000D71B5B42FB1A9A46012685E5C0087B0755
:101C30005D460343FA08E7E64A46DB0852071343CA
:101C40004A46D208B5E6C0087B070343FA08DBE63C
:101C5000494619430B00591E8B411C0053E64D4663
:101C6000203CE540202905D04024641A4946A14083
:101C70000B43984643465C1EA3412B4376E7002A5C
:101C8000E1D03A00DB08024300D1B8E64A465207E9
:101C9000802413434A462403D208224207D0FE0878
:101CA000264204D15D463200C3087F073B43590FEB
:101CB000DB004907DB080B43A6E6C41AA0428041BB
:101CC0004B464042FF1A3B1A9A465D46012633E5D1
:101CD0003B00034300D115E7C0087B075D46034383
:101CE000FA0866E6C0087B070343FA085EE63A0096
:101CF000DB08024300D182E64A46520780241343A0
:101D00004A462403D208224207D0FE08264204D1C4
:101D10005D463200C3087F073B43590FDB00DB08F9
:101D200049070B4370E6C0087B070343FA0840E607
:101D30004C462039CC406146202906D066464021D9
:101D4000891B4E468E40334398464346591E8B416D
:101D50001C43D8E51C18844280414F44BA46404297
:101D60008244D9E65346234300D1CBE614E6C0466D
:101D7000FF070000FFFF7FFFFE0700000023014A6E
:101D80001C0029E5FF07000070B5002816D0C31716
:101D9000C5185D40C40F280000F0F4F8114B1B1A61
:101DA0000A2816DC02002E00153296400B22121A69
:101DB000D5405B052D032D0B5B0D03E000240023B4
:101DC000002500261B052B43E407234330001900A0
:101DD00070BD0B3885405B052D0300262D0B5B0D78
:101DE000F0E7C0461E04000070B542024300C40F75
:101DF000FE201B0E591C550A08420CD0E021890018
:101E00008C466D07120B63441B051343E407234301
:101E10002800190070BD002B14D1002D1BD0280004
:101E200000F0B0F80A281CDC0B232A001B1ADA4049
:101E3000030015339D400E4B12031B1A5B05120B5A
:101E40005B0DE1E7002D09D0130B802212031A432A
:101E50006D07084BD8E700230022D5E70022054B89
:101E6000D2E703002A000B3B9A400025E3E7C04677
:101E700089030000FF0700000200F0B54B000D03CE
:101E8000400F5B0DCC0F6D0A3A490543581CD70033
:101E900008420AD038495918FE2916DDFF200022D1
:101EA000C0051043E4072043F0BD002B06D13D439D
:101EB00026D005229201520AD8B2F1E72F43EDD085
:101EC0008022D203FF202A43EAE700291BDD92018A
:101ED000501E8241ED007F0F2A433A43530747D0FB
:101EE0000F231340042B00D004328023DB04134063
:101EF0003ED0481CFE29D1D09201520AC0B2CFE791
:101F000000200022CCE70A0017322FDB802636049F
:101F10002E431E256D1A1F2D11DD02225242521A28
:101F20003100D140202D04D0144A944663449E4091
:101F300037433A00531E9A410A430021CEE7104A24
:101F400038009446634498403A00411E88419E40C0
:101F5000EA403043024300215307C1D180211300DE
:101F6000C90401200B400A42C6D1A3E70023A0E721
:101F70000B009FE7FE07000080FCFFFFA2FCFFFFB5
:101F800082FCFFFF1C2101231B04984201D3000C9B
:101F900010391B0A984201D3000A08391B099842DC
:101FA00001D30009043902A2105C40187047C046F2
:101FB0000403020201010101000000000000000012
:101FC00080B584B000AF3B1D18000C231A0000211F
:101FD00002F060FF254B264A1A60244B00225A600B
:101FE000224B00229A60214B0022DA601F4B012213
:101FF0001A611E4B04225A611C4B00221A761B4B9D
:1020000000225A76194B01229A76184B0022DA7672
:10201000164BC222FF32DA61144B00221A62134BB4
:10202000242201219954114B01229A620F4B18006E
:1020300000F028FF031E01D000F02AFA3B1D092200
:102040001A603B1D802252015A603B1D07229A6094
:102050003A1D064B1100180001F0EEF8031E01D0E6
:1020600000F016FAC046BD4604B080BD3000002026
:102070000024014090B58BB000AF786014243B1968
:10208000180014231A00002102F004FF7B681B686B
:102090002D4A934253D12D4B9A692C4B80218900B4
:1020A0000A439A61294B9A6980239B0013403B6144
:1020B0003B69264B5A69254B8021C9020A435A6164
:1020C000224B5A698023DB021340FB60FB683B19FB
:1020D00002221A603B1903225A603B1900229A60BF
:1020E0003B191B4A1900100001F01AFD194B1A4A3E
:1020F0001A60184B00225A60164B00229A60154B4A
:102100008022DA60134B802252001A61114B802228
:10211000D2005A610F4B20229A610E4B802252014D
:10212000DA610C4B180001F063FB031E01D000F0D4
:10213000AFF97B68074A1A63064B7A685A62C04651
:10214000BD460BB090BDC0460024014000100240C7
:1021500000040048700000200800024080B582B0F2
:1021600000AF0C4B5A690B4B01210A435A61094BD2
:102170005B69012213407B607B68002200210920FB
:1021800001F004FB092001F016FBC046BD4602B079
:1021900080BDC04600100240F0B585B000AF3F4B97
:1021A0001B78002B73D00F26BB190D221A703C4BE5
:1021B0001B889BB21800FFF7E7FD3A4A3A4BFEF73F
:1021C0009FFF02000B0014001D00BB191B781800B4
:1021D000FFF7DAFD02000B0020002900FEF790FF58
:1021E00002000B00100019000022304BFEF728FC03
:1021F00002000B0010001900FFF73EFE021C284BE6
:102200005A60274B5B682A49181CFEF71BF8031E0F
:1022100003D0234B00229A7002E0214B01229A70D6
:102220001F4B5A68234B1B68191C101CFEF7FAF849
:10223000031C181CFFF7D8FD04000D001D4B1B6884
:10224000181CFFF7D1FD02000B0000201A49FFF710
:1022500019FA02000B003A607B60184B1B68181CCF
:10226000FFF7C2FD02000B0038687968FEF748FFEF
:1022700002000B0020002900FEF7E2FB02000B0029
:1022800010001900FFF7F8FD021C0C4B1A600B4BF5
:102290001B68181CBD4605B0F0BDC04634010020C7
:1022A000B8000020B4D934E70C684A3F0000E03F92
:1022B0000000B041000000200000F03FB40000200A
:1022C00090B589B000AF0C243B19180014231A00F4
:1022D000002102F0DFFD294B5A69284B8021890239
:1022E0000A435A61254B5A6980239B021340BB6005
:1022F000BB68224B5A69214B8021C9020A435A61AB
:102300001E4B5A698023DB0213407B607B681C49AB
:102310009023DB050022180001F072FD194B00220A
:102320000821180001F06CFD3B19154A1A603B1991
:1023300001225A603B1900229A603B190022DA60A0
:102340003A199023DB051100180001F0E9FB210088
:102350007B1808221A607B1801225A607B18002221
:102360009A607B180022DA607B18064A1900100078
:1023700001F0D6FBC046BD4609B090BD001002403A
:102380007E1F00000004004880B500AF154B0022FE
:102390001A80144B01229A70124B00221A7200F01C
:1023A0000DFD00F025F8FFF78BFFFFF7D7FEFFF7D5
:1023B00007FE00F0A1FA0B490B4B0122180000F0B8
:1023C000A1FE0A4B180002F0C7F900F003FCFFF76A
:1023D000E3FE031C181C00F0E5F900F0ADF900F075
:1023E0008BFCF2E7B800002030000020CC00002079
:1023F00090B591B000AF10243B19180030231A009B
:10240000002102F047FD3B00180010231A000021B4
:1024100002F040FD21007B1812221A607B18012275
:10242000DA607B1801225A617B1810221A617B182E
:1024300010229A617B1802221A627B1800225A62CB
:102440007B18802252039A627B180022DA627B1882
:10245000180001F0F3FC031E01D000F019F83B0056
:1024600007221A603B0002225A603B0000229A6059
:102470003B000022DA603B000021180001F0F8FF69
:10248000031E01D000F004F8C046BD4611B090BD57
:1024900080B500AF72B6C046FEE7000090B585B0CB
:1024A00000AF040008001100FB1D221C1A70BB1DA8
:1024B000021C1A707B1D0A1C1A709C4B1B7A01228D
:1024C0005340DBB2002B60D0984B9B78DBB20122EB
:1024D0005340DBB2002B58D08023D9009023DB057A
:1024E0000022180001F08CFC9023DB050022202143
:1024F000180001F085FC9023DB0500221021180054
:1025000001F07EFC9023DB0500220221180001F07F
:1025100077FC802399009023DB050122180001F04D
:102520006FFC9023DB0501224021180001F068FCBC
:102530009023DB0501220421180001F061FC8023B7
:1025400019019023DB050122180001F059FC784B9A
:1025500001220821180001F053FC80235900902328
:10256000DB050122180001F04BFC9023DB05012262
:102570000821180001F044FC802359019023DB0559
:102580000122180001F03CFCCDE0BB1D1A780F249D
:102590003B1968498A5C1A708023D9009023DB05B7
:1025A0000022180001F02CFC9023DB0500222021E2
:1025B000180001F025FC9023DB05002210211800F3
:1025C00001F01EFC9023DB0500220221180001F01F
:1025D00017FC3B191B78012213405A425341DBB2CE
:1025E0001A00802399009023DB05180001F008FCF5
:1025F0003B191B78022213405A425341DBB21A00A6
:102600009023DB054021180001F0FAFB3B191B78F1
:10261000042213405A425341DBB21A009023DB05D7
:102620000421180001F0ECFB3B191B780822134031
:102630005A425341DBB21A00802319019023DB0573
:10264000180001F0DDFB3B191B78102213405A42A1
:102650005341DBB21A00364B0821180001F0D0FBC1
:102660003B191B78202213405A425341DBB21A0017
:10267000802359009023DB05180001F0C1FB3B19B2
:102680001B78402213405A425341DBB21A00902378
:10269000DB050821180001F0B3FB7B1D1B785BB242
:1026A000DB43DBB2DB09DBB21A0080235901902344
:1026B000DB05180001F0A4FBFB1D1B78032B29D0C0
:1026C00030DC022B1ED02DDC002B02D0012B09D0D8
:1026D00028E08023D9009023DB050122180001F0B7
:1026E0008FFB20E09023DB0501222021180001F060
:1026F00087FB802359019023DB050022180001F09D
:102700007FFB10E09023DB0501221021180001F06F
:1027100077FB08E09023DB0501220221180001F07D
:102720006FFB00E0C046BD4605B090BDB80000207C
:1027300000040048044F000880B500AF154B1B781B
:10274000002B24D0144B1B78D8B2134B1B78DBB270
:102750001A00124B9B5CDBB202221900FFF79EFEAF
:102760000D4B1B78DBB201330D4A134004D5013BFE
:102770000422524213430133DAB2074B1A70064B5C
:102780001B78DBB2042B02D1034B00221A70C04627
:10279000BD4680BD2D010020C4000020C8000020DF
:1027A00003000080B0B584B000AF7860234978683A
:1027B000FDF738FE031C0E257C19181CFDF76AFD79
:1027C000030023802C003B191B88FA22910018007B
:1027D000FDF79AFC03009BB20A211800FDF71AFDD1
:1027E0000B009BB2DAB2164B1A703B191B8864219E
:1027F0001800FDF789FC03009BB20A211800FDF7C1
:1028000009FD0B009BB2DAB20D4B5A703B191B88C5
:102810000A211800FDF778FC03009BB20A2118007A
:10282000FDF7F8FC0B009BB2DAB2054B9A70044B33
:102830000022DA70C046BD4604B0B0BD0000C842F8
:10284000C800002080B582B000AF0F4B9A690E4BD4
:1028500001210A439A610C4B9B69012213407B6062
:102860007B68094BDA69084B802149050A43DA6124
:10287000054BDA6980235B0513403B603B68C0462B
:10288000BD4602B080BDC0460010024080B500AF1A
:10289000FEE780B500AFFEE780B500AFC046BD469D
:1028A00080BD80B500AFC046BD4680BD80B500AFDD
:1028B00000F0CCFAC046BD4680BD000080B500AF38
:1028C000034B180001F042F8C046BD4680BDC0462B
:1028D0007000002080B500AF034B180001F082FFAC
:1028E000C046BD4680BDC046CC00002080B500AFCC
:1028F000C046BD4680BD000080B586B000AF08234D
:10290000FB18180010231A00002102F0C3FA3B0044
:10291000180008231A00002102F0BCFA1E4B1F4ABF
:102920001A601D4B17225A601B4B00229A601A4BEB
:10293000FA229200DA60184B00221A61164B00222C
:102940009A61154B180001F0B7FE031E01D0FFF786
:102950009FFD08217B18802252011A607A180E4BC5
:102960001100180002F02CF8031E01D0FFF790FDB3
:102970003B0000221A603B0000225A603A00064BDE
:102980001100180002F024FA031E01D0FFF780FDA9
:10299000C046BD4606B080BDCC000020000400400B
:1029A00080B584B000AF78607B681B680D4A9342A5
:1029B00013D10D4BDA690C4B02210A43DA610A4B41
:1029C000DB6902221340FB60FB680022002110201B
:1029D00000F0DCFE102000F0EEFEC046BD4604B064
:1029E00080BDC046000400400010024080B582B0A7
:1029F00000AF78607B681B685E4A934200D0B4E009
:102A00005D4B1B780133DAB25B4B1A705A4B1A7864
:102A10005A4B1B789A4205D9594B01221A70564BD2
:102A200000221A70574B1B780133DAB2554B1A70DB
:102A3000544B1B78002B05D0534B01221A70514B7D
:102A400000221A70514B1B780133DAB24F4B1A70C7
:102A50004E4B1B78092B05D94D4B01221A704B4B5D
:102A600000221A704B4B1B780133DAB2494B1A70B3
:102A7000484B1B78182B05D9474B01221A70454B40
:102A800000221A70454B1B780133DAB2434B1A709F
:102A9000424B1B78312B05D9414B01221A703F4B19
:102AA00000221A703F4B1B780133DAB23D4B1A708B
:102AB0003C4B1B78632B05D93B4B01221A70394BD9
:102AC00000221A70394B1B780133DAB2374B1A7077
:102AD000364B1B78F92B13D9354B01221A70334B27
:102AE00000221A70334B1B7A5A1E9341DBB201222B
:102AF0005340DBB21A1C01231340DAB22D4B1A7279
:102B00002D4B1B8801339AB22B4B1A802A4B1A8803
:102B1000FA235B009A4205D3284B01221A70264BF8
:102B200000221A80264B1B8801339AB2244B1A804C
:102B3000234B1A88FA239B009A4205D3214B01228A
:102B40001A701F4B00221A801F4B1B8801339AB248
:102B50001D4B1A801C4B1B881C4A934205D91C4BE9
:102B600001221A70184B00221A80C046BD4602B0DE
:102B700080BDC04600040040140100200800002071
:102B80002201002015010020230100201601002051
:102B90002401002017010020250100201801002039
:102BA0002601002019010020270100201A01002021
:102BB00028010020B80000201C010020290100206D
:102BC0001E0100202A010020200100200F27000004
:102BD0002B01002080B500AF334B1B78002B05D0B4
:102BE000324B01221A70304B00221A70304B1B7886
:102BF000002B05D02F4B01221A702D4B00221A708A
:102C00002D4B1B78002B05D02C4B01221A702A4B20
:102C100000221A702A4B1B78002B05D0294B012269
:102C20001A70274B00221A70274B1B78002B05D0F7
:102C3000264B01221A70244B00221A70244B1B7859
:102C4000002B05D0234B01221A70214B00221A7051
:102C5000214B1B78002B05D0204B01221A701E4BF4
:102C600000221A701E4B1B78002B05D01D4B012231
:102C70001A701B4B00221A701B4B1B78002B05D0BF
:102C80001A4B01221A70184B00221A70184B1B782D
:102C9000002B05D0174B01221A70154B00221A7019
:102CA000C046BD4680BDC046220100202C01002048
:102CB000230100202D010020240100202E010020EE
:102CC000250100202F0100202601002030010020D6
:102CD00027010020310100202801002032010020BE
:102CE00029010020330100202A01002034010020A6
:102CF0002B0100203501002080B500AF104B0022D1
:102D00001A70104B00221A700F4B00221A700F4BD2
:102D100000221A700E4B00221A700E4B00221A70FD
:102D20000D4B00221A700D4B00221A700C4B002222
:102D30001A700C4B00221A70C046BD4680BDC046BA
:102D40002C0100202D0100202E0100202F01002049
:102D50003001002031010020320100203301002029
:102D600034010020350100200D488546FFF7BEFDE7
:102D70000C480D490D4A002302E0D458C4500433D6
:102D8000C4188C42F9D30A4A0A4C002301E01360AC
:102D90000432A242FBD302F085F8FFF7F5FAFEE712
:102DA000001000200000002014000020484F000800
:102DB000140000203C010020FEE7000080B500AFB9
:102DC000074B1A68064B10210A431A60032000F0D3
:102DD00009F8FFF737FD00231800BD4680BDC04647
:102DE0000020024090B583B000AF7860144B1C689F
:102DF000144B1B781900FA239800FDF785F903009E
:102E000019002000FDF780F90300180000F0E3FC32
:102E1000031E01D001230FE07B68032B0BD87968D8
:102E200001235B420022180000F0B0FC064B7A68D8
:102E30001A60002300E001231800BD4603B090BDD6
:102E400004000020100000200C00002080B500AF1E
:102E5000054B1B781A00054B1B68D218034B1A60F0
:102E6000C046BD4680BDC04610000020380100208D
:102E700080B500AF024B1B681800BD4680BDC04640
:102E80003801002080B584B000AF78600F23FB18B4
:102E900000221A700023BB607B68002B01D1012344
:102EA00025E17B689B6B002B0AD17B680022DA63EB
:102EB0007B683422002199547B681800FFF7DAF808
:102EC0007B689B6B1022134000D003E10F23FB189B
:102ED0001B78002B00D0FDE07B681B689B680422F8
:102EE000134000D0F6E07B689B6B834A13400222BC
:102EF0001A437B689A637B681B689B6803221340B4
:102F0000012B12D17B681B681B6801221340012B27
:102F100009D07B681B68DA6880231B021A40802373
:102F20001B029A4201D1012300E00023002B16D19D
:102F30007B681B68DB681822934319007B689A68DA
:102F40007B681B680A43DA607B681B681B699B000F
:102F500099087B685A687B681B680A431A617B681A
:102F60001B68DA687B681B6864490A40DA607B6822
:102F70001B7E9A037B685B7EDB031A437B689B7E28
:102F80005B031A437B689B6A012B02D080235B01A1
:102F900000E000231A437B68DB681A437B681B69E7
:102FA000022B01D1042300E000231A437B68242173
:102FB0005B5C5B001343BA681343BB607B68DB7EDA
:102FC000012B15D17B689B7E002B05D1BB6880222D
:102FD00052021343BB600BE07B689B6B20221A43B9
:102FE0007B689A637B68DB6B01221A437B68DA6338
:102FF0007B68DA69C223FF339A4207D07B68DA69BB
:103000007B681B6A1343BA681343BB607B681B6809
:10301000D9687B681B68BA680A43DA607B68DA6A39
:1030200080235B059A421BD07B68DB6A012B17D09B
:103030007B68DB6A022B13D07B68DB6A032B0FD023
:103040007B68DB6A042B0BD07B68DB6A052B07D01F
:103050007B68DB6A062B03D07B68DB6A072B12D107
:103060007B681B685A697B681B6807218A435A6121
:103070007B681B6859697B68DB6A07221A407B689A
:103080001B680A435A617B681B68DB681C4A134053
:10309000BA689A420BD17B680022DA637B689B6B2B
:1030A0000322934301221A437B689A631CE07B68E6
:1030B0009B6B1222934310221A437B689A637B68AE
:1030C000DB6B01221A437B68DA630F23FB180122B2
:1030D0001A7009E07B689B6B10221A437B689A6325
:1030E0000F23FB1801221A700F23FB181B781800FE
:1030F000BD4604B080BDC046FDFEFFFF1902FEFFC5
:10310000E7FF3F8390B587B000AFF860B9607A60A1
:103110001723FB1800221A70FB681B689B680422A7
:1031200013405ED1FB6834229B5C012B01D102234A
:103130005EE0FB68342201219954FB685B7E012B21
:1031400007D01723FC18FB68180000F06BF9030088
:1031500023701723FB181B78002B46D1FB689B6B51
:10316000254A1340802252001A43FB689A63FB6889
:103170000022DA63FB68342200219954FB681B6B40
:103180001E4A9A62FB681B6B1D4ADA62FB681B6B66
:103190001C4A1A63FB681B681C221A60FB681B68C8
:1031A0005A68FB681B6810210A435A60FB681B6859
:1031B000DA68FB681B6801210A43DA60FB68186B58
:1031C000FB681B6840331900BA687B6800F058FB45
:1031D000FB681B689A68FB681B6804210A439A60B5
:1031E00003E01723FB1802221A701723FB181B7821
:1031F0001800BD4607B090BDFEF0FFFF2D3500085A
:10320000E1350008FF35000880B582B000AF786076
:10321000C046BD4602B080BD80B582B000AF7860C8
:10322000C046BD4602B080BD80B582B000AF7860B8
:10323000C046BD4602B080BD80B584B000AF7860A6
:1032400039600F23FB1800221A700023BB607B68D3
:10325000DA6A80235B059A4211D07B68DB6A012B16
:103260000DD07B68DB6A022B09D07B68DB6A032BFD
:1032700005D07B68DB6A042B01D07B68DB6A7B6846
:1032800034229B5C012B01D10223BBE07B683422FA
:10329000012199547B681B689B680422134000D06D
:1032A0009FE03B685B68594A934200D177E07B68B6
:1032B0001B68996A3B681B6801229A407B681B68FF
:1032C0000A439A627B68DA6A80235B059A4237D0A8
:1032D0007B68DB6A012B33D07B68DB6A022B2FD043
:1032E0007B68DB6A032B2BD07B68DB6A042B27D03F
:1032F0007B68DB6A052B23D07B68DB6A062B1FD03B
:103300007B68DB6A072B1BD03B689A687B681B686D
:103310005B6907210B409A4212D07B681B685A698F
:103320007B681B6807218A435A617B681B6859695F
:103330003B689B6807221A407B681B680A435A61F6
:103340003B681B68102B03D03B681B68112B52D1C4
:103350002F4B19683B681B68102B02D180231B047C
:1033600001E08023DB032A4A0B4313603B681B68A0
:10337000102B40D1274B1B6827491800FCF7C4FECF
:1033800003001A0013009B009B185B00BB6002E067
:10339000BB68013BBB60BB68002BF9D12BE07B68AD
:1033A0001B689A6A3B681B68012199400B00D9434E
:1033B0007B681B680A409A623B681B68102B03D02D
:1033C0003B681B68112B16D1114B19683B681B68B1
:1033D000102B01D1114A00E0114A0D4B0A401A602E
:1033E00009E07B689B6B20221A437B689A630F235A
:1033F000FB1801221A707B683422002199540F2394
:10340000FB181B781800BD4604B080BD01100000F9
:10341000082701400400002040420F00FFFF7FFF0B
:10342000FFFFBFFF80B584B000AF78600023FB6072
:103430000023BB607B681B689B6803221340012B41
:1034400012D17B681B681B6801221340012B09D035
:103450007B681B68DA6880231B021A4080231B02EA
:103460009A4201D1012300E00023002B52D17B6856
:103470001B689B682A4A13400DD07B689B6B102207
:103480001A437B689A637B68DB6B01221A437B6873
:10349000DA6301233FE07B681B689A687B681B68DE
:1034A00001210A439A601F4B1B681F491800FCF753
:1034B0002BFE0300BB6002E0BB68013BBB60BB6846
:1034C000002BF9D1FFF7D4FC0300FB601BE0FFF7F2
:1034D000CFFC0200FB68D31A022B14D97B681B684F
:1034E0001B6801221340012B0DD07B689B6B1022BF
:1034F0001A437B689A637B68DB6B01221A437B6803
:10350000DA63012307E07B681B681B680122134014
:10351000012BDCD100231800BD4604B080BDC0469D
:10352000170000800400002040420F0080B584B0E6
:1035300000AF78607B685B6AFB60FB689B6B502226
:10354000134040D1FB689B6B802292001A43FB68BA
:103550009A63FB681B68DA68C0231B0113402DD1F6
:10356000FB689B7E002B29D1FB681B681B68082227
:103570001340082B22D1FB681B689B680422134070
:1035800010D1FB681B685A68FB681B680C218A43D2
:103590005A60FB689B6B114A134001221A43FB6877
:1035A0009A630BE0FB689B6B20221A43FB689A63CB
:1035B000FB68DB6B01221A43FB68DA63FB681800C7
:1035C000FFF722FE05E0FB681B6B1B6B7A6810009F
:1035D0009847C046BD4604B080BDC046FEFEFFFF12
:1035E00080B584B000AF78607B685B6AFB60FB6885
:1035F0001800FFF711FEC046BD4604B080BD80B57F
:1036000084B000AF78607B685B6AFB60FB689B6B93
:1036100040221A43FB689A63FB68DB6B04221A435F
:10362000FB68DA63FB681800FFF7FEFDC046BD4685
:1036300004B080BD80B582B000AF0200FB1D1A70DF
:10364000FB1D1B787F2B09D8FB1D1B781A001F233D
:103650001A40044B012191400A001A60C046BD4641
:1036600002B080BD00E100E090B583B000AF020081
:103670003960FB1D1A70FB1D1B787F2B28D82F4A41
:10368000FB1D1B785BB29B08C0339B009B58FA1D47
:103690001278110003220A40D200FF2191400A0053
:1036A000D2431A4011003B689B01FF221A40FB1DC8
:1036B0001B78180003230340DB009A401F48FB1DC2
:1036C0001B785BB29B080A43C0339B001A5031E061
:1036D0001B4AFB1D1B7819000F230B40083B9B085E
:1036E00006339B00D31804331B68FA1D12781100AF
:1036F00003220A40D200FF2191400A00D2431A401F
:1037000011003B689B01FF221A40FB1D1B7818002B
:1037100003230340DB009A400948FB1D1B781C0073
:103720000F232340083B9B080A4306339B00C31822
:1037300004331A60C046BD4603B090BD00E100E00E
:1037400000ED00E080B582B000AF78607B685A1E63
:1037500080235B049A4201D3012310E00A4B7A686C
:10376000013A5A6001235B4203211800FFF77CFFF6
:10377000054B00229A60044B07221A6000231800B0
:10378000BD4602B080BDC04610E000E080B584B008
:1037900000AFB9607A600F217B18021C1A70BA68FA
:1037A0007B181B785BB211001800FFF75DFFC04665
:1037B000BD4604B080BD80B582B000AF0200FB1DE5
:1037C0001A70FB1D1B785BB21800FFF733FFC04671
:1037D000BD4602B080BD80B582B000AF78607B6826
:1037E0001800FFF7AFFF03001800BD4602B080BD10
:1037F00080B584B000AF78600023FB607B68002B4D
:1038000001D1012336E07B682122022199547B6893
:103810001B681B68FB60FB68184A1340FB607B68F1
:103820005A687B689B681A437B68DB681A437B682D
:103830001B691A437B685B691A437B689B691A435F
:103840007B68DB691343FA681343FB607B681B6882
:10385000FA681A607B68180000F046F97B6800225D
:103860009A637B682122012199547B6820220021E0
:10387000995400231800BD4604B080BD0FC0FFFF5F
:1038800080B586B000AFF860B9607A603B601723FE
:10389000FB1800221A70FB6820229B5C012B01D1CF
:1038A00002234FE0FB68202201219954FB6821226A
:1038B0009B5CDBB2012B3AD1FB6821220221995497
:1038C000FB6800229A63FB681B681A68FB681B6828
:1038D00001218A431A603B687A68B968F86800F089
:1038E000D7F8FB68DB6A002B08D0FB681B681A68F6
:1038F000FB681B680E210A431A600FE0FB681B6817
:103900001A68FB681B680A210A431A60FB681B6877
:103910001A68FB681B6804218A431A60FB681B68ED
:103920001A68FB681B6801210A431A6007E0FB68FC
:103930002022002199541723FB1802221A70172302
:10394000FB181B781800BD4606B080BD80B584B05A
:1039500000AF78607B68DB6B1B68FB607B681B6873
:103960001B68BB607B681B6C04229A401300FA68DA
:10397000134024D0BB680422134020D07B681B680E
:103980001B682022134007D17B681B681A687B687C
:103990001B6804218A431A607B681A6C7B68DB6BA6
:1039A000042191400A005A607B68DB6A002B00D139
:1039B0006AE07B68DB6A7A681000984764E07B689D
:1039C0001B6C02229A401300FA6813402BD0BB688C
:1039D0000222134027D07B681B681B6820221340FB
:1039E0000BD17B681B681A687B681B680A218A43B5
:1039F0001A607B682122012199547B681A6C7B68CC
:103A0000DB6B022191400A005A607B682022002172
:103A100099547B689B6A002B36D07B689B6A7A68D6
:103A20001000984730E07B681B6C08229A40130016
:103A3000FA68134028D0BB680822134024D07B6862
:103A40001B681A687B681B680E218A431A607B68B2
:103A50001A6C7B68DB6B012191400A005A607B681D
:103A600001229A637B682122012199547B682022DC
:103A7000002199547B681B6B002B05D07B681B6B66
:103A80007A6810009847FFE7C046BD4604B080BD85
:103A900080B584B000AFF860B9607A603B60FB68C5
:103AA0001A6CFB68DB6B012191400A005A60FB68CD
:103AB0001B683A685A60FB685B68102B08D1FB688A
:103AC0001B687A689A60FB681B68BA68DA6007E06E
:103AD000FB681B68BA689A60FB681B687A68DA60E2
:103AE000C046BD4604B080BD80B582B000AF7860EE
:103AF0007B681B68084A9446634414211800FCF74D
:103B000003FB03009A007B681A647B68034ADA634C
:103B1000C046BD4602B080BDF8FFFDBF00000240B8
:103B200080B586B000AF7860396000237B614FE1DB
:103B30003B681B6801217A6991400A001340FB60D1
:103B4000FB68002B00D140E13B685B680322134017
:103B5000012B05D03B685B6803221340022B30D158
:103B60007B689B683B617B695B0003229A40130082
:103B7000DA433B6913403B613B68DA687B695B0071
:103B80009A4013003A6913433B617B683A699A6033
:103B90007B685B683B6101227B699A401300DA43D2
:103BA0003B6913403B613B685B681B0901221A407B
:103BB0007B699A4013003A6913433B617B683A6919
:103BC0005A603B685B6803221340032B17D07B6865
:103BD000DB683B617B695B0003229A401300DA4398
:103BE0003B6913403B613B689A687B695B009A4084
:103BF00013003A6913433B617B683A69DA603B68BA
:103C00005B6803221340022B23D17B69DA087B68AF
:103C100008329200D3583B617B69072213409B0016
:103C20000F229A401300DA433B6913403B613B6823
:103C30001A697B6907210B409B009A4013003A697F
:103C400013433B617B69DA087B680832920039696B
:103C5000D1507B681B683B617B695B0003229A4003
:103C60001300DA433B6913403B613B685B68032206
:103C70001A407B695B009A4013003A6913433B6129
:103C80007B683A691A603B685A68C0239B021340FC
:103C900000D19AE0544B9A69534B01210A439A612F
:103CA000514B9B6901221340BB60BB684F4A7B6943
:103CB0009B0802339B009B583B617B6903221340A6
:103CC0009B000F229A401300DA433B6913403B618B
:103CD0007A689023DB059A4213D07B68444A93426A
:103CE0000DD07B68434A934207D07B68424A934297
:103CF00001D1032306E0052304E0022302E00123AF
:103D000000E000237A6903210A40920093403A6957
:103D100013433B6135497B699B0802339B003A6939
:103D20005A50364B9B683B61FB68DA433B69134052
:103D30003B613B685A6880235B03134003D03A69B8
:103D4000FB6813433B612D4B3A699A602B4BDB6850
:103D50003B61FB68DA433B6913403B613B685A684F
:103D600080239B03134003D03A69FB6813433B61F4
:103D7000224B3A69DA60214B5B683B61FB68DA43AE
:103D80003B6913403B613B685A6880239B021340A8
:103D900003D03A69FB6813433B61184B3A695A6098
:103DA000164B1B683B61FB68DA433B6913403B6180
:103DB0003B685A6880235B02134003D03A69FB6872
:103DC00013433B610D4B3A691A607B6901337B6198
:103DD0003B681A687B69DA40131E00D0A8E6C0462B
:103DE000C046BD4606B080BD001002400000014044
:103DF0000004004800080048000C0048000401408E
:103E000080B582B000AF786008001100BB1C021CB6
:103E10001A807B1C0A1C1A707B1C1B78002B04D098
:103E2000BB1C1A887B689A6103E0BB1C1A887B68FC
:103E30009A62C046BD4602B080BD000080B588B021
:103E400000AF78607B68002B01D1012301E37B6820
:103E50001B680122134000D18DE0C34B5B680C222C
:103E60001340042B0ED0C04B5B680C221340082B70
:103E700016D1BD4B5A6880235B021A4080235B0237
:103E80009A420DD1B84B1A6880239B02134000D18F
:103E900070E07B685B68002B00D06BE00123D8E208
:103EA0007B685B68012B07D1AF4B1A68AE4B802152
:103EB00049020A431A602FE07B685B68002B0CD133
:103EC000A94B1A68A84BA9490A401A60A64B1A6860
:103ED000A54BA7490A401A601EE07B685B68052B6A
:103EE0000ED1A14B1A68A04B8021C9020A431A6067
:103EF0009D4B1A689C4B802149020A431A600BE0D3
:103F0000994B1A68984B99490A401A60964B1A685F
:103F1000954B97490A401A607B685B68002B14D068
:103F2000FEF7A6FF0300BB6108E0FEF7A1FF020059
:103F3000BB69D31A642B01D903238AE28A4B1A681E
:103F400080239B021340F0D015E0FEF791FF0300A1
:103F5000BB6108E0FEF78CFF0200BB69D31A642B3B
:103F600001D9032375E2804B1A6880239B0213401A
:103F7000F0D100E0C0467B681B680222134000D1EC
:103F800069E0794B5B680C2213400BD0764B5B6881
:103F90000C221340082B1CD1734B5A6880235B0200
:103FA000134016D1704B1B680222134005D07B686A
:103FB000DB68012B01D001234BE26B4B1B68F8221D
:103FC000934319007B681B69DA00674B0A431A6048
:103FD00041E07B68DB68002B24D0634B1A68624B9E
:103FE00001210A431A60FEF743FF0300BB6108E0AA
:103FF000FEF73EFF0200BB69D31A022B01D903234F
:1040000027E2594B1B6802221340F1D0564B1B6824
:10401000F822934319007B681B69DA00524B0A436C
:104020001A6018E0504B1A684F4B01218A431A60FE
:10403000FEF71EFF0300BB6108E0FEF719FF020058
:10404000BB69D31A022B01D9032302E2464B1B683A
:1040500002221340F1D17B681B680822134036D03E
:104060007B68DB69002B19D03F4B5A6A3E4B01211C
:104070000A435A62FEF7FCFE0300BB6108E0FEF74C
:10408000F7FE0200BB69D31A022B01D90323E0E13A
:10409000354B5B6A02221340F1D018E0324B5A6A6A
:1040A000314B01218A435A62FEF7E2FE0300BB61F5
:1040B00008E0FEF7DDFE0200BB69D31A022B01D92E
:1040C0000323C6E1284B5B6A02221340F1D17B68CF
:1040D0001B680422134000D1B4E01F203B180022CB
:1040E0001A70214BDA6980235B05134010D11E4BF7
:1040F000DA691D4B802149050A43DA611A4BDA69F6
:1041000080235B051340FB60FB683B1801221A709B
:10411000184B1A6880235B0013401AD1154B1A689C
:10412000144B802149000A431A60FEF7A1FE0300E8
:10413000BB6108E0FEF79CFE0200BB69D31A642B4A
:1041400001D9032385E10B4B1A6880235B001340E0
:10415000F0D07B689B68012B0ED1034B1A6A024B8F
:1041600001210A431A6235E000100240FFFFFEFF02
:10417000FFFFFBFF007000407B689B68002B0CD1A9
:10418000B64B1A6AB54B01218A431A62B34B1A6ABD
:10419000B24B04218A431A621CE07B689B68052BA2
:1041A0000CD1AE4B1A6AAD4B04210A431A62AB4BD9
:1041B0001A6AAA4B01210A431A620BE0A74B1A6A3A
:1041C000A64B01218A431A62A44B1A6AA34B04210D
:1041D0008A431A627B689B68002B14D0FEF748FE66
:1041E0000300BB6109E0FEF743FE0200BB69D31A7E
:1041F0009B4A934201D903232BE1984B1B6A02226D
:104200001340F0D013E0FEF733FE0300BB6109E07A
:10421000FEF72EFE0200BB69D31A914A934201D9E0
:10422000032316E18D4B1B6A02221340F0D11F239A
:10423000FB181B78012B05D1884BDA69874B89491C
:104240000A40DA617B681B681022134063D07B68E8
:104250005B69012B2AD1814B5A6B804B04210A43A5
:104260005A637E4B5A6B7D4B01210A435A63FEF71A
:10427000FFFD0300BB6108E0FEF7FAFD0200BB6929
:10428000D31A022B01D90323E3E0744B5B6B0222A8
:104290001340F1D0714B5B6BF822934319007B689C
:1042A0009B69DA006D4B0A435A6334E07B685B69B3
:1042B000053311D1694B5A6B684B04218A435A6309
:1042C000664B5B6BF822934319007B689B69DA00AD
:1042D000624B0A435A631EE0604B5A6B5F4B0421EA
:1042E0000A435A635D4B5A6B5C4B01218A435A6304
:1042F000FEF7BEFD0300BB6108E0FEF7B9FD02005A
:10430000BB69D31A022B01D90323A2E0534B5B6B89
:1043100002221340F1D17B681B6A002B00D197E089
:104320004E4B5B680C221340082B00D16BE07B687E
:104330001B6A022B4CD1494B1A68484B4A490A4028
:104340001A60FEF795FD0300BB6108E0FEF790FDE3
:104350000200BB69D31A022B01D9032379E03F4B3A
:104360001A6880239B041340F0D13C4BDB6A0F2278
:10437000934319007B68DA6A384B0A43DA62374B99
:104380005B683A4A134019007B689A6A7B685B6AEB
:104390001A43324B0A435A60304B1A682F4B802124
:1043A00049040A431A60FEF763FD0300BB6108E09D
:1043B000FEF75EFD0200BB69D31A022B01D903236D
:1043C00047E0264B1A6880239B041340F0D03FE05F
:1043D000224B1A68214B24490A401A60FEF748FD17
:1043E0000300BB6108E0FEF743FD0200BB69D31A7E
:1043F000022B01D903232CE0184B1A6880239B045D
:104400001340F0D124E07B681B6A012B01D101230A
:104410001FE0124B5B687B61104BDB6A3B617A6982
:1044200080235B021A407B685B6A9A420ED13B692B
:104430000F221A407B68DB6A9A4207D17A69F0231F
:104440009B031A407B689B6A9A4201D0012300E0DB
:1044500000231800BD4608B080BDC04600100240D1
:1044600088130000FFFFFFEFFFFFFFFEFFFFC2FF0B
:1044700080B584B000AF786039607B68002B01D1D3
:104480000123B3E05B4B1B68012213403A689A4258
:1044900011D9584B1B68012293431900554B3A68B8
:1044A0000A431A60534B1B68012213403A689A4230
:1044B00001D001239AE07B681B680222134015D0CB
:1044C0007B681B680422134006D04B4B5A684A4B4A
:1044D000E021C9000A435A60474B5B68F0229343CE
:1044E00019007B689A68444B0A435A607B681B68D2
:1044F0000122134040D07B685B68012B07D13E4B03
:104500001A6880239B02134014D101236EE07B685C
:104510005B68022B07D1384B1A6880239B04134039
:1045200008D1012362E0344B1B680222134001D101
:1045300001235BE0304B5B680322934319007B68E7
:104540005A682D4B0A435A60FEF792FC0300FB6049
:1045500009E0FEF78DFC0200FB68D31A274A93425C
:1045600001D9032342E0244B5B680C221A407B688C
:104570005B689B009A42ECD11E4B1B6801221340E2
:104580003A689A4211D21B4B1B68012293431900CF
:10459000184B3A680A431A60164B1B6801221340F5
:1045A0003A689A4201D0012320E07B681B6804220C
:1045B000134009D0104B5B68114A134019007B6807
:1045C000DA680D4B0A435A6000F020F801000A4BEC
:1045D0005B681B090F2213400A4AD35C0A00DA40C9
:1045E000094B1A600320FEF7FDFB00231800BD46AF
:1045F00004B080BD0020024000100240881300007B
:10460000FFF8FFFF104F00080400002080B586B0BF
:1046100000AF0023FB600023BB6000237B6100230D
:104620007B6000233B61204B5B68FB60FB680C22D6
:104630001340042B02D0082B03D02CE01B4B3B6112
:104640002CE0FB689B0C0F221340194AD35C7B6063
:10465000154BDB6A0F221340164AD35CBB60FA6825
:1046600080235B02134009D0B9681048FBF74CFD6A
:1046700003001A007B6853437B6109E079680A00F4
:104680005201521A93019B1ADB005B181B027B61DB
:104690007B693B6102E0054B3B61C0463B6918000A
:1046A000BD4606B080BDC0460010024000127A0030
:1046B000204F0008304F000880B582B000AF78600E
:1046C0007B68002B01D1012342E07B683D229B5C8B
:1046D000DBB2002B07D17B683C22002199547B6818
:1046E0001800FEF75DF97B683D22022199547B6832
:1046F0001A687B6804331900100000F055FA7B68D3
:104700004622012199547B683E22012199547B68FD
:104710003F22012199547B684022012199547B68F2
:104720004122012199547B684222012199547B68DE
:104730004322012199547B684422012199547B68CA
:104740004522012199547B683D220121995400237F
:104750001800BD4602B080BD80B584B000AF78605F
:104760007B683D229B5CDBB2012B01D0012330E052
:104770007B683D22022199547B681B68DA687B685C
:104780001B6801210A43DA607B681B68134A934265
:1047900004D07B681B68124A934211D17B681B6866
:1047A0009B6807221340FB60FB68062B10D07B68D8
:1047B0001B681A687B681B6801210A431A6007E0BE
:1047C0007B681B681A687B681B6801210A431A60B2
:1047D00000231800BD4604B080BDC046002C014037
:1047E0000004004080B584B000AF78607B681B682F
:1047F000DB68FB607B681B681B69BB60BB680222CF
:10480000134021D0FB68022213401DD07B681B6837
:10481000032252421A617B6801221A777B681B6867
:104820009B690322134004D07B68180000F0A4F9B0
:1048300007E07B68180000F097F97B68180000F02B
:10484000A3F97B6800221A77BB680422134022D0A8
:10485000FB68042213401ED07B681B68052252426D
:104860001A617B6802221A777B681B689A69C023E9
:104870009B00134004D07B68180000F07DF907E02E
:104880007B68180000F070F97B68180000F07CF974
:104890007B6800221A77BB680822134021D0FB688E
:1048A000082213401DD07B681B68092252421A61FE
:1048B0007B6804221A777B681B68DB69032213403C
:1048C00004D07B68180000F057F907E07B681800F7
:1048D00000F04AF97B68180000F056F97B68002266
:1048E0001A77BB681022134022D0FB6810221340B5
:1048F0001ED07B681B68112252421A617B68082215
:104900001A777B681B68DA69C0239B00134004D0C8
:104910007B68180000F030F907E07B68180000F0B1
:1049200023F97B68180000F02FF97B6800221A77C2
:10493000BB68012213400CD0FB680122134008D051
:104940007B681B68022252421A617B681800FEF7DE
:104950004DF8BB68802213400CD0FB6880221340C6
:1049600008D07B681B68812252421A617B6818005C
:1049700000F088FABB68402213400CD0FB6840224C
:10498000134008D07B681B68412252421A617B6841
:10499000180000F001F9BB68202213400CD0FB681E
:1049A0002022134008D07B681B68212252421A61E2
:1049B0007B68180000F05EFAC046BD4604B080BDBA
:1049C00080B584B000AF786039600F23FB180022F7
:1049D0001A707B683C229B5C012B01D10223BCE056
:1049E0007B683C22012199547B683D220221995425
:1049F0007B681B689B68BB60BB6877229343BB6086
:104A0000BB68584A1340BB607B681B68BA689A60F1
:104A10003B681B6880229201934240D08022920121
:104A2000934200D988E080225201934200D188E06D
:104A300080225201934200D97EE0702B18D000D919
:104A40007AE0602B4FD000D976E0502B3BD000D9D4
:104A500072E0402B57D000D96EE0302B63D06BD87A
:104A6000202B60D068D8002B5DD0102B5BD063E08A
:104A70007B6818683B6899683B685A683B68DB68E4
:104A800000F086F97B681B689B68BB60BB68772277
:104A90001343BB607B681B68BA689A6052E07B680E
:104AA00018683B6899683B685A683B68DB6800F0A7
:104AB0006FF97B681B689A687B681B688021C90155
:104AC0000A439A603EE07B6818683B6859683B6817
:104AD000DB681A0000F0E2F87B681B6850211800C0
:104AE00000F03CF92EE07B6818683B6859683B6829
:104AF000DB681A0000F000F97B681B686021180071
:104B000000F02CF91EE07B6818683B6859683B6828
:104B1000DB681A0000F0C2F87B681B6840211800AF
:104B200000F01CF90EE07B681A683B681B681900EE
:104B3000100000F013F905E00F23FB1801221A7092
:104B400000E0C0467B683D22012199547B683C22ED
:104B5000002199540F23FB181B781800BD4604B0A0
:104B600080BDC046FF00FFFF80B582B000AF786017
:104B7000C046BD4602B080BD80B582B000AF78604F
:104B8000C046BD4602B080BD80B582B000AF78603F
:104B9000C046BD4602B080BD80B582B000AF78602F
:104BA000C046BD4602B080BD80B584B000AF78601D
:104BB00039607B681B68FB607B68324A934203D094
:104BC0007B68314A934208D1FB6870229343FB60B3
:104BD0003B685B68FA681343FB607B68294A934231
:104BE0000FD07B68284A93420BD07B68274A9342B8
:104BF00007D07B68264A934203D07B68254A9342BC
:104C000008D1FB68244A1340FB603B68DB68FA6804
:104C10001343FB60FB68802293431A003B685B6987
:104C20001343FB607B68FA681A603B689A687B688C
:104C3000DA623B681A687B689A627B68114A934221
:104C400007D07B68124A934203D07B68114A934293
:104C500003D13B681A697B681A637B6801225A6139
:104C60007B681B6901221340012B06D17B681B69FD
:104C7000012293431A007B681A61C046BD4604B006
:104C800080BDC046002C01400004004000200040D0
:104C90000044014000480140FFFCFFFF80B586B0A2
:104CA00000AFF860B9607A60FB681B6A7B61FB68E3
:104CB0001B6A012293431A00FB681A62FB689B6916
:104CC0003B613B69F02293433B617B681B013A697E
:104CD00013433B617B690A2293437B617A69BB681A
:104CE00013437B61FB683A699A61FB687A691A62CF
:104CF000C046BD4606B080BD80B586B000AFF86046
:104D0000B9607A60FB681B6A7B61FB681B6A1022D2
:104D100093431A00FB681A62FB689B693B613B691D
:104D20000D4A13403B617B681B033A6913433B61A7
:104D30007B69A02293437B61BB681B017A691343A3
:104D40007B61FB683A699A61FB687A691A62C046BE
:104D5000BD4606B080BDC046FF0FFFFF80B584B0E2
:104D600000AF786039607B689B68FB60FB687022ED
:104D70009343FB603A68FB68134307221343FB60CD
:104D80007B68FA689A60C046BD4604B080BD0000EA
:104D900080B586B000AFF860B9607A603B60FB68B0
:104DA0009B687B617B69094A13407B613B681A02FF
:104DB0007B681A43BB6813437A6913437B61FB68C2
:104DC0007A699A60C046BD4606B080BDFF00FFFF0D
:104DD00080B584B000AF786039607B683C229B5C12
:104DE000012B01D102233CE07B683C220121995434
:104DF0007B683D22022199547B681B685B68FB60DD
:104E00007B681B689B68BB60FB6870229343FB60F8
:104E10003B681B68FA681343FB607B681B68FA6891
:104E20005A607B681B68114A934204D07B681B68F8
:104E30000F4A93420CD1BB6880229343BB603B680E
:104E40005B68BA681343BB607B681B68BA689A608A
:104E50007B683D22012199547B683C2200219954B2
:104E600000231800BD4604B080BDC046002C0140A0
:104E70000004004080B582B000AF7860C046BD46F7
:104E800002B080BD80B582B000AF7860C046BD463C
:104E900002B080BD03008218934200D170471970A0
:104EA0000133F9E770B500260C4C0D4D641BA410BE
:104EB000A64209D1002600F019F80A4C0A4D641BDD
:104EC000A410A64205D170BDB300EB589847013637
:104ED000EEE7B300EB5898470136F2E7404F000881
:104EE000404F0008444F0008404F0008F8B5C04646
:104EF000F8BC08BC9E467047F8B5C046F8BC08BC74
:044F00009E46704712
:104F04003F065B4F666D7D077F6F00000000000069
:104F14000000000001020304060708090203040557
:104F2400060708090A0B0C0D0E0F101001020304EA
:0C4F340005060708090A0B0C0D0E0F10F3
:044F4000E90000087C
:044F4400C1000008A0
:104F48009A99193F00127A0001000000040000003D
:044F58000100000054
:0400000508002D6959
:00000001FF
