:020000040800F2
:1000000000100020ED14000821120008271200083B
:1000100000000000000000000000000000000000E0
:100020000000000000000000000000002D12000889
:100030000000000000000000371200084112000814
:100040003D150008000000003D1500083D150008A2
:100050003D1500083D1500083D1500083D15000838
:1000600000000000511200083D1500083D15000871
:100070003D1500083D1500083D1500080000000072
:100080003D15000800000000000000003D150008BC
:10009000000000003D1500083D1500083D15000852
:1000A000000000003D150008000000003D1500089C
:1000B0000000000000000000000000000000000040
:1000C00010B5064C2378002B07D1054B002B02D02E
:1000D000044800E000BF0123237010BD0C00002085
:1000E0000000000034340008044B10B5002B03D08E
:1000F0000349044800E000BF10BDC04600000000F6
:100100001000002034340008002243088B4274D3CE
:1001100003098B425FD3030A8B4244D3030B8B4208
:1001200028D3030C8B420DD3FF22090212BA030C11
:100130008B4202D31212090265D0030B8B4219D3F2
:1001400000E0090AC30B8B4201D3CB03C01A524112
:10015000830B8B4201D38B03C01A5241430B8B425A
:1001600001D34B03C01A5241030B8B4201D30B0343
:10017000C01A5241C30A8B4201D3CB02C01A52416A
:10018000830A8B4201D38B02C01A5241430A8B422D
:1001900001D34B02C01A5241030A8B4201D30B0216
:1001A000C01A5241CDD2C3098B4201D3CB01C01A30
:1001B000524183098B4201D38B01C01A524143093A
:1001C0008B4201D34B01C01A524103098B4201D328
:1001D0000B01C01A5241C3088B4201D3CB00C01A95
:1001E000524183088B4201D38B00C01A524143080D
:1001F0008B4201D34B00C01A5241411A00D2014632
:10020000524110467047FFE701B5002000F006F8A4
:1002100002BDC0460029F7D076E770477047C04658
:10022000844608006146FFE71FB500F0B7F80028D4
:1002300001D40021C8421FBD10B500F043F8404270
:10024000013010BD10B500F0A9F8002801DB002036
:1002500010BD012010BDC04610B500F09FF8002869
:1002600001DD002010BD012010BDC04610B500F01A
:100270004FF8002801DC002010BD012010BDC04651
:1002800010B500F045F8002801DA002010BD01206B
:1002900010BDC0469E2110B5C905041CFFF7F0FF34
:1002A000002803D1201C00F0ABFB10BD9E21201CB8
:1002B000C90500F005FA00F0A3FB80231B069C464D
:1002C0006044F2E770B5420045024E024C00C30F95
:1002D0006D0A0120120E760A240EC90FFF2A06D0DD
:1002E000FF2C03D0A24201D1B54206D070BD002D33
:1002F000FCD1FF2CFAD1002EF8D18B4206D0012080
:10030000002AF3D12800431E9841EFE70020EDE7D3
:1003100070B5420045024E024C00C30F6D0A120E2A
:10032000760A240EC80FFF2A1BD0FF2C0ED0002AFD
:100330001BD1002C01D1002E1CD0002D0CD08342EB
:100340001CD00221581E0840013870BD002E22D159
:10035000002AF4D1002DF2D10028F6D1012040422C
:10036000F3E7002D17D1FF2CF0D0002CE7D1002EA1
:10037000E5D1E6E70020002DE7D0E2E7A24205DC68
:10038000EADBB54202D8E7D30020DEE7434258411A
:1003900040000138D9E702204042D6E770B542005C
:1003A00045024E024C00C30F6D0A120E760A240E4F
:1003B000C80FFF2A0BD0FF2C0DD0002A1FD1002C14
:1003C00016D1002E14D10020002D10D009E0002DF0
:1003D0000CD1FF2C13D1002E08D1002A08D0834263
:1003E00012D00221581E0840013800E0022070BDE2
:1003F000002DF4D10028FAD101204042F7E7002C6B
:10040000EDD1002EEBD1ECE7A24205DCF2DBB542E8
:1004100002D8EFD30020EAE74342584140000138B8
:10042000E5E7C04643025B0AF0B54F4646469946AB
:10043000D646C30F45009846C0B54B460F1C2D0E3F
:1004400000D1CBE0FF2D00D1CFE08022DB00D20431
:100450001A430023914600269A467F3D7C027B008A
:10046000640A1B0EFF0F002B00D1A9E0FF2B11D057
:100470008022E400D204144342467F3B5B197A4059
:100480000020D2B25D1C0A2E13DD3A000B2E47D09D
:1004900047463FE02B00FF33002C1ED102221643BB
:1004A000424601357A40D2B2FF350A2E00DDE4E043
:1004B0000220022E1CDC013E012E42D802283DD033
:1004C000012866D100200021C0050843D20710434F
:1004D000E0BCBA46B146A846F0BD032216434246E8
:1004E00001357A40D2B2FF350A2E00DDE4E0032068
:1004F0000121B140A626F60031420AD19026B6006D
:10050000314216D1B93EFF3E0E421AD0A146824674
:1005100000E0170053463A00022B0FD04C465046DD
:100520000328CDD18021C90321434902FF20490A74
:10053000CAE780210022FF20C903C5E7FF20002170
:10054000C2E7200C49462404240C27000E0C0904A1
:10055000090C74434F4346434843390C00190918AA
:100560008C4203D980204002844666443F0408043C
:100570003F0CC0198401671EBC41090C800E89190B
:10058000044389010C43090171D5012361081C4012
:100590000C432B007F33002B51DD610704D00F216A
:1005A0002140042900D00434210103D5434B1C40D1
:1005B0002B008033FE2BC1DCA101490AD8B283E7AE
:1005C000002C2CD1012342461E432B007A400120EF
:1005D000D2B25D1C0A2E00DD57E76AE7002B10D16E
:1005E0000123042600259A4638E7002B04D1022374
:1005F0000826FF259A4631E703230C26FF259A4655
:100600002CE7484600F01CFA4A46431F76259A40DC
:1006100000236D42914600269A462D1A1EE72000BF
:1006200000F00EFA4246431F9C402B1A763B7A405C
:100630000020D2B25D1C0A2E00DD26E739E7012139
:10064000CB1A1B2B00DD3DE79E352100AC40D94085
:10065000631E9C4121434B0704D00F230B40042B06
:1006600000D004314B0104D5012000212CE71D00EE
:100670008FE789010020490A26E702230F2E0CD1BB
:1006800080214B46C9030B420DD00C420BD12143B4
:1006900049023A00FF20490A16E70B2E00D0F7E680
:1006A000A1469A4636E780214B46C90319434902C1
:1006B0004246FF20490A07E70323DFE7FFFFFFF772
:1006C000F0B5C64643025B0A4500DA00C40F480293
:1006D0004F009446420A1E00904600B52D0E3F0E74
:1006E000C90F8009FF2F59D0012251408C4239D0C7
:1006F000EA1B002A58DD002F68D0FF2D00D1D1E081
:100700008023DB0418431B2A00DCE3E0012362465C
:10071000D31A5A0100D4ACE09B019E09300000F0CE
:100720008FF9330005388340854200DCC6E0B24AC9
:100730002D1A13405A0704D00F221A40042A00D061
:1007400004335A0100D497E06A1CFE2D00D184E0E6
:100750009B015E0AD2B2D0053043E407204380BC3F
:10076000B846F0BDEA1B002A41DD002F6BD0FF2DFB
:1007700000D197E08023DB0418431B2A00DCCCE087
:10078000012363445A0174D50135FF2D65D0012240
:100790009A491A405B080B401343CBE700281FD04F
:1007A0008C4222D02A00FF3A002A35D07A1B002D35
:1007B00000D099E06346002B00D1DDE0531E012AF2
:1007C00000D105E1FF2A6BD01A0094E0002873D015
:1007D000511E012A00D1DFE0FF2A63D00A0092E710
:1007E00001225140A14200D082E72A00FF3A002AAC
:1007F00036D07A1B002D00D1AAE0FF2F00D1DAE01D
:1008000080236146DB0419438C461B2A00DCD4E0BC
:1008100001233D001B18B5E7FE276A1C174271D162
:10082000002D00D09EE06346002B00D1D5E00022D1
:10083000002800D18FE71B1A5E0100D4D6E0634682
:100840000C00C31A76E7002836D0511E012A00D1C9
:100850009AE0FF2A26D00A008FE7FF2200267AE7D7
:10086000FE276A1C174262D0FF2AF6D015006044AA
:1008700043085A0700D05FE7DB08FF2D12D05B0268
:100880005E0AEAB267E76246002A00D193E00028D8
:1008900008D08022D203134204D04046104201D136
:1008A0000C004346002BD8D08026F6031E43760268
:1008B000FF22760A4FE743461500DEE72022401B61
:1008C0000130121A19009340C1405A1E934100256D
:1008D0000B432FE720239B1A010098400300D140CF
:1008E0005A1E93410B4312E7FF2FD9D08023644651
:1008F000DB041C43A4461B2A52DD01230C003D00EF
:10090000C31A06E763461E1A730139D4002E00D0BD
:1009100004E70024002200261DE720239B1A010083
:1009200098400300D1405A1E93410B4329E7002D04
:10093000A9D16346002B56D00022002800D10AE737
:10094000030063445A0194D52B4A0135134090E7C4
:100950006346002BAFD0531E012A15D0FF2A2AD0A0
:100960001A0052E76246002A91D1002898D18026C9
:100970000024FF22F603EEE60C00434615007CE758
:1009800063460C00C61AC9E60300634401255A01F8
:1009900000D46EE70225FAE6634601251B1AB8E685
:1009A00064462023D4409B1A62469A4013005A1E84
:1009B00093412343A2E7434674E761462023D14095
:1009C0009B1A62469A4013005A1E93410B4320E73C
:1009D00063460C000125C31A9BE6002899D00C0041
:1009E00046460022B7E646460022B4E6002B00D079
:1009F0003FE700240026AEE6FFFFFFFBFFFFFF7D81
:100A000041024200C30F490A0020120E7E2A03DD74
:100A10009D2A02DD094A981870478020000401438E
:100A2000952A07DC9620821AD1404842002BF3D148
:100A30000800F1E7963A9140F7E7C046FFFFFF7FD5
:100A40001C2101231B04984201D3000C10391B0AFE
:100A5000984201D3000A08391B09984201D30009C2
:100A6000043902A2105C40187047C0460403020219
:100A700001010101000000000000000080B584B009
:100A800000AF3B1D18000C231A00002102F0A6FC49
:100A9000254B264A1A60244B00225A60224B002222
:100AA0009A60214B0022DA601F4B01221A611E4B13
:100AB00004225A611C4B00221A761B4B00225A76E4
:100AC000194B01229A76184B0022DA76164BC22275
:100AD000FF32DA61144B00221A62134B24220121E7
:100AE0009954114B01229A620F4B180000F08CFDB3
:100AF000031E01D000F096F93B1D09221A603B1D30
:100B0000802252015A603B1D07229A603A1D064B13
:100B10001100180000F052FF031E01D000F082F90E
:100B2000C046BD4604B080BD28000020002401401E
:100B300090B58BB000AF786014243B1918001423D3
:100B40001A00002102F04AFC7B681B682D4A934280
:100B500053D12D4B9A692C4B802189000A439A610D
:100B6000294B9A6980239B0013403B613B69264BCC
:100B70005A69254B8021C9020A435A61224B5A699E
:100B80008023DB021340FB60FB683B1902221A60E2
:100B90003B1903225A603B1900229A603B191B4AF9
:100BA0001900100001F07EFB194B1A4A1A60184B0D
:100BB00000225A60164B00229A60154B8022DA60A0
:100BC000134B802252001A61114B8022D2005A61CD
:100BD0000F4B20229A610E4B80225201DA610C4B9E
:100BE000180001F0C7F9031E01D000F01BF97B6863
:100BF000074A1A63064B7A685A62C046BD460BB074
:100C000090BDC0460024014000100240000400488E
:100C1000680000200800024080B582B000AF0C4B95
:100C20005A690B4B01210A435A61094B5B69012246
:100C300013407B607B6800220021092001F068F9E5
:100C4000092001F07AF9C046BD4602B080BDC04619
:100C50000010024090B589B000AF0C243B19180079
:100C600014231A00002102F0B9FB294B5A69284BC2
:100C7000802189020A435A61254B5A6980239B02CD
:100C80001340BB60BB68224B5A69214B8021C902CB
:100C90000A435A611E4B5A698023DB0213407B6072
:100CA0007B681C499023DB050022180001F06AFCD8
:100CB000194B00220821180001F064FC3B19154A69
:100CC0001A603B1901225A603B1900229A603B19B5
:100CD0000022DA603A199023DB051100180001F0B8
:100CE000E1FA21007B1808221A607B1801225A6061
:100CF0007B1800229A607B180022DA607B18064A73
:100D00001900100001F0CEFAC046BD4609B090BDF2
:100D1000001002407E1F00000004004880B500AFB4
:100D2000144B00221A80134B01229A70114B00229F
:100D30001A7200F005FC00F025F8FFF78BFFFFF7B3
:100D40006BFFFFF79BFE00F095FA0A490A4B012260
:100D5000180000F099FD094B180002F0BFF800F0F0
:100D6000FBFA074B181C00F0E7F900F0AFF900F0B0
:100D700085FBF4E7AC00002028000020C000002024
:100D80009A99314190B591B000AF10243B191800E9
:100D900030231A00002102F021FB3B001800102331
:100DA0001A00002102F01AFB21007B1812221A609F
:100DB0007B180122DA607B1801225A617B1810220D
:100DC0001A617B1810229A617B1802221A627B1822
:100DD00000225A627B18802252039A627B180022FA
:100DE000DA627B18180001F0EBFB031E01D000F063
:100DF00019F83B0007221A603B0002225A603B00B0
:100E000000229A603B000022DA603B0000211800BB
:100E100001F0F0FE031E01D000F004F8C046BD460C
:100E200011B090BD80B500AF72B6C046FEE70000BD
:100E300090B585B000AF040008001100FB1D221C16
:100E40001A70BB1D021C1A707B1D0A1C1A709C4B69
:100E50001B7A01225340DBB2002B60D0984B9B7869
:100E6000DBB201225340DBB2002B58D08023D900E3
:100E70009023DB050022180001F084FB9023DB05A2
:100E800000222021180001F07DFB9023DB050022C9
:100E90001021180001F076FB9023DB0500220221CF
:100EA000180001F06FFB802399009023DB050122DD
:100EB000180001F067FB9023DB0501224021180098
:100EC00001F060FB9023DB0501220421180001F0F2
:100ED00059FB802319019023DB050122180001F042
:100EE00051FB784B01220821180001F04BFB8023B5
:100EF00059009023DB050122180001F043FB9023E9
:100F0000DB0501220821180001F03CFB8023590178
:100F10009023DB050122180001F034FBCDE0BB1D5E
:100F20001A780F243B1968498A5C1A708023D9000B
:100F30009023DB050022180001F024FB9023DB0541
:100F400000222021180001F01DFB9023DB05002268
:100F50001021180001F016FB9023DB05002202216E
:100F6000180001F00FFB3B191B78012213405A4275
:100F70005341DBB21A00802399009023DB0518004F
:100F800001F000FB3B191B78022213405A425341E7
:100F9000DBB21A009023DB054021180001F0F2FAC1
:100FA0003B191B78042213405A425341DBB21A000A
:100FB0009023DB050421180001F0E4FA3B191B78AB
:100FC000082213405A425341DBB21A008023190110
:100FD0009023DB05180001F0D5FA3B191B7810228D
:100FE00013405A425341DBB21A00364B0821180015
:100FF00001F0C8FA3B191B78202213405A42534192
:10100000DBB21A00802359009023DB05180001F0A1
:10101000B9FA3B191B78402213405A425341DBB2C4
:101020001A009023DB050821180001F0ABFA7B1DA4
:101030001B785BB2DB43DBB2DB09DBB21A00802337
:1010400059019023DB05180001F09CFAFB1D1B7869
:10105000032B29D030DC022B1ED02DDC002B02D03C
:10106000012B09D028E08023D9009023DB05012241
:10107000180001F087FA20E09023DB0501222021EF
:10108000180001F07FFA802359019023DB0500222C
:10109000180001F077FA10E09023DB0501221021FF
:1010A000180001F06FFA08E09023DB05012202210D
:1010B000180001F067FA00E0C046BD4605B090BDDB
:1010C000AC000020000400484C34000880B500AF9C
:1010D000154B1B78002B24D0144B1B78D8B2134B24
:1010E0001B78DBB21A00124B9B5CDBB202221900A8
:1010F000FFF79EFE0D4B1B78DBB201330D4A134008
:1011000004D5013B0422524213430133DAB2074BA8
:101110001A70064B1B78DBB2042B02D1034B002262
:101120001A70C046BD4680BD13010020B8000020E3
:10113000BC00002003000080B0B584B000AF786030
:1011400023497868FFF76EF9031C0E257C19181CDB
:10115000FFF7A0F8030023802C003B191B88FA221C
:1011600091001800FEF7D0FF03009BB20A2118007F
:10117000FFF750F80B009BB2DAB2164B1A703B190E
:101180001B8864211800FEF7BFFF03009BB20A21F1
:101190001800FFF73FF80B009BB2DAB20D4B5A7004
:1011A0003B191B880A211800FEF7AEFF03009BB213
:1011B0000A211800FFF72EF80B009BB2DAB2054B9C
:1011C0009A70044B0022DA70C046BD4604B0B0BD30
:1011D0000000C842BC00002080B582B000AF0F4BB9
:1011E0009A690E4B01210A439A610C4B9B690122BB
:1011F00013407B607B68094BDA69084B8021490505
:101200000A43DA61054BDA6980235B0513403B60D2
:101210003B68C046BD4602B080BDC04600100240DB
:1012200080B500AFFEE780B500AFFEE780B500AF48
:10123000C046BD4680BD80B500AFC046BD4680BD3E
:1012400080B500AF00F0C4F9C046BD4680BD0000C7
:1012500080B500AF034B180000F03AFFC046BD4612
:1012600080BDC0466800002080B500AFC046BD46C6
:1012700080BD000080B586B000AF0823FB181800C1
:1012800010231A00002102F0A9F83B0018000823DF
:101290001A00002102F0A2F81E4B1F4A1A601D4BD3
:1012A00007225A601B4B00229A601A4BFA229200C6
:1012B000DA60184B00221A61164B00229A61154B16
:1012C000180001F0BBFD031E01D0FFF7ABFD0821A4
:1012D0007B18802252011A607A180E4B11001800F8
:1012E00001F042FE031E01D0FFF79CFD3B000022EF
:1012F0001A603B0000225A603A00064B11001800A9
:1013000002F01AF8031E01D0FFF78CFDC046BD465F
:1013100006B080BDC00000200004004080B584B04D
:1013200000AF78607B681B68094A93420BD1094B78
:10133000DA69084B02210A43DA61064BDB690222B3
:101340001340FB60FB68C046BD4604B080BDC0468C
:10135000000400400010024080B500AF334B1B7802
:10136000002B05D0324B01221A70304B00221A702C
:10137000304B1B78002B05D02F4B01221A702D4BC0
:1013800000221A702D4B1B78002B05D02C4B01220C
:101390001A702A4B00221A702A4B1B78002B05D09A
:1013A000294B01221A70274B00221A70274B1B78F9
:1013B000002B05D0264B01221A70244B00221A70F4
:1013C000244B1B78002B05D0234B01221A70214B94
:1013D00000221A70214B1B78002B05D0204B0122D4
:1013E0001A701E4B00221A701E4B1B78002B05D062
:1013F0001D4B01221A701B4B00221A701B4B1B78CD
:10140000002B05D01A4B01221A70184B00221A70BB
:10141000184B1B78002B05D0174B01221A70154B67
:1014200000221A70C046BD4680BDC046080100209B
:101430001201002009010020130100200A010020F0
:10144000140100200B010020150100200C010020D8
:10145000160100200D010020170100200E010020C0
:10146000180100200F0100201901002010010020A8
:101470001A010020110100201B01002080B500AFDF
:10148000104B00221A70104B00221A700F4B0022D2
:101490001A700F4B00221A700E4B00221A700E4B5E
:1014A00000221A700D4B00221A700D4B00221A7088
:1014B0000C4B00221A700C4B00221A70C046BD461D
:1014C00080BDC0461201002013010020140100203D
:1014D000150100201601002017010020180100202E
:1014E000190100201A0100201B0100200D4885462B
:1014F000FFF7BAFE0C480D490D4A002302E0D4580C
:10150000C4500433C4188C42F9D30A4A0A4C00234D
:1015100001E013600432A242FBD301F067FFFFF742
:10152000FDFBFEE700100020000000200C00002062
:10153000903400080C00002020010020FEE700008D
:1015400080B500AF074B1A68064B10210A431A609A
:10155000032000F009F8FFF73FFE00231800BD4606
:1015600080BDC0460020024090B583B000AF7860D7
:10157000144B1C68144B1B781900FA239800FEF7D3
:10158000C3FD030019002000FEF7BEFD0300180094
:1015900000F0E3FC031E01D001230FE07B68032B66
:1015A0000BD8796801235B420022180000F0B0FCE0
:1015B000064B7A681A60002300E001231800BD463C
:1015C00003B090BD000000200800002004000020AF
:1015D00080B500AF054B1B781A00054B1B68D2186D
:1015E000034B1A60C046BD4680BDC04608000020BF
:1015F0001C01002080B500AF024B1B681800BD46DF
:1016000080BDC0461C01002080B584B000AF78606A
:101610000F23FB1800221A700023BB607B68002B8D
:1016200001D1012325E17B689B6B002B0AD17B68EC
:101630000022DA637B683422002199547B68180009
:10164000FFF776FA7B689B6B1022134000D003E112
:101650000F23FB181B78002B00D0FDE07B681B6874
:101660009B680422134000D0F6E07B689B6B834AA2
:10167000134002221A437B689A637B681B689B684D
:1016800003221340012B12D17B681B681B680122C7
:101690001340012B09D07B681B68DA6880231B028A
:1016A0001A4080231B029A4201D1012300E000234B
:1016B000002B16D17B681B68DB6818229343190046
:1016C0007B689A687B681B680A43DA607B681B68E2
:1016D0001B699B0099087B685A687B681B680A43F2
:1016E0001A617B681B68DA687B681B6864490A407A
:1016F000DA607B681B7E9A037B685B7EDB031A43A0
:101700007B689B7E5B031A437B689B6A012B02D03C
:1017100080235B0100E000231A437B68DB681A43E7
:101720007B681B69022B01D1042300E000231A43CC
:101730007B6824215B5C5B001343BA681343BB6086
:101740007B68DB7E012B15D17B689B7E002B05D14E
:10175000BB68802252021343BB600BE07B689B6B2B
:1017600020221A437B689A637B68DB6B01221A4351
:101770007B68DA637B68DA69C223FF339A4207D059
:101780007B68DA697B681B6A1343BA681343BB60E2
:101790007B681B68D9687B681B68BA680A43DA6093
:1017A0007B68DA6A80235B059A421BD07B68DB6A20
:1017B000012B17D07B68DB6A022B13D07B68DB6AB6
:1017C000032B0FD07B68DB6A042B0BD07B68DB6AB2
:1017D000052B07D07B68DB6A062B03D07B68DB6AAE
:1017E000072B12D17B681B685A697B681B6807212D
:1017F0008A435A617B681B6859697B68DB6A0722E8
:101800001A407B681B680A435A617B681B68DB6867
:101810001C4A1340BA689A420BD17B680022DA63F3
:101820007B689B6B0322934301221A437B689A6374
:101830001CE07B689B6B1222934310221A437B6847
:101840009A637B68DB6B01221A437B68DA630F23A0
:10185000FB1801221A7009E07B689B6B10221A4367
:101860007B689A630F23FB1801221A700F23FB1861
:101870001B781800BD4604B080BDC046FDFEFFFFCA
:101880001902FEFFE7FF3F8390B587B000AFF86015
:10189000B9607A601723FB1800221A70FB681B6876
:1018A0009B68042213405ED1FB6834229B5C012BB1
:1018B00001D102235EE0FB68342201219954FB68C8
:1018C0005B7E012B07D01723FC18FB68180000F083
:1018D0006BF9030023701723FB181B78002B46D1EC
:1018E000FB689B6B254A1340802252001A43FB6819
:1018F0009A63FB680022DA63FB6834220021995462
:10190000FB681B6B1E4A9A62FB681B6B1D4ADA62FE
:10191000FB681B6B1C4A1A63FB681B681C221A605D
:10192000FB681B685A68FB681B6810210A435A60F1
:10193000FB681B68DA68FB681B6801210A43DA60F0
:10194000FB68186BFB681B6840331900BA687B683A
:1019500000F058FBFB681B689A68FB681B68042151
:101960000A439A6003E01723FB1802221A70172318
:10197000FB181B781800BD4607B090BDFEF0FFFFB6
:10198000B11C0008651D0008831D000880B582B0E9
:1019900000AF7860C046BD4602B080BD80B582B061
:1019A00000AF7860C046BD4602B080BD80B582B051
:1019B00000AF7860C046BD4602B080BD80B584B03F
:1019C00000AF786039600F23FB1800221A700023E3
:1019D000BB607B68DA6A80235B059A4211D07B6822
:1019E000DB6A012B0DD07B68DB6A022B09D07B6898
:1019F000DB6A032B05D07B68DB6A042B01D07B6894
:101A0000DB6A7B6834229B5C012B01D10223BBE0A3
:101A10007B683422012199547B681B689B680422EF
:101A2000134000D09FE03B685B68594A934200D165
:101A300077E07B681B68996A3B681B6801229A40C3
:101A40007B681B680A439A627B68DA6A80235B05BD
:101A50009A4237D07B68DB6A012B33D07B68DB6A24
:101A6000022B2FD07B68DB6A032B2BD07B68DB6AD1
:101A7000042B27D07B68DB6A052B23D07B68DB6ACD
:101A8000062B1FD07B68DB6A072B1BD03B689A684C
:101A90007B681B685B6907210B409A4212D07B6808
:101AA0001B685A697B681B6807218A435A617B68F7
:101AB0001B6859693B689B6807221A407B681B6852
:101AC0000A435A613B681B68102B03D03B681B68B4
:101AD000112B52D12F4B19683B681B68102B02D178
:101AE00080231B0401E08023DB032A4A0B4313609D
:101AF0003B681B68102B40D1274B1B6827491800F7
:101B0000FEF702FB03001A0013009B009B185B000A
:101B1000BB6002E0BB68013BBB60BB68002BF9D136
:101B20002BE07B681B689A6A3B681B68012199401F
:101B30000B00D9437B681B680A409A623B681B68AC
:101B4000102B03D03B681B68112B16D1114B196861
:101B50003B681B68102B01D1114A00E0114A0D4B64
:101B60000A401A6009E07B689B6B20221A437B685D
:101B70009A630F23FB1801221A707B68342200211C
:101B800099540F23FB181B781800BD4604B080BD84
:101B900001100000082701400000002040420F0013
:101BA000FFFF7FFFFFFFBFFF80B584B000AF78600D
:101BB0000023FB600023BB607B681B689B680322DB
:101BC0001340012B12D17B681B681B680122134054
:101BD000012B09D07B681B68DA6880231B021A403E
:101BE00080231B029A4201D1012300E00023002B35
:101BF00052D17B681B689B682A4A13400DD07B68D2
:101C00009B6B10221A437B689A637B68DB6B012213
:101C10001A437B68DA6301233FE07B681B689A689C
:101C20007B681B6801210A439A601F4B1B681F4990
:101C30001800FEF769FA0300BB6002E0BB68013BD5
:101C4000BB60BB68002BF9D1FFF7D4FC0300FB603D
:101C50001BE0FFF7CFFC0200FB68D31A022B14D95C
:101C60007B681B681B6801221340012B0DD07B6829
:101C70009B6B10221A437B689A637B68DB6B0122A3
:101C80001A437B68DA63012307E07B681B681B68E3
:101C900001221340012BDCD100231800BD4604B003
:101CA00080BDC046170000800000002040420F00A9
:101CB00080B584B000AF78607B685B6AFB60FB68CE
:101CC0009B6B5022134040D1FB689B6B802292009B
:101CD0001A43FB689A63FB681B68DA68C0231B0120
:101CE00013402DD1FB689B7E002B29D1FB681B681C
:101CF0001B6808221340082B22D1FB681B689B68D5
:101D00000422134010D1FB681B685A68FB681B68EB
:101D10000C218A435A60FB689B6B114A13400122D5
:101D20001A43FB689A630BE0FB689B6B20221A4303
:101D3000FB689A63FB68DB6B01221A43FB68DA637A
:101D4000FB681800FFF722FE05E0FB681B6B1B6BAE
:101D50007A6810009847C046BD4604B080BDC046B2
:101D6000FEFEFFFF80B584B000AF78607B685B6AE1
:101D7000FB60FB681800FFF711FEC046BD4604B0CB
:101D800080BD80B584B000AF78607B685B6AFB6023
:101D9000FB689B6B40221A43FB689A63FB68DB6B12
:101DA00004221A43FB68DA63FB681800FFF7FEFDA4
:101DB000C046BD4604B080BD80B582B000AF020011
:101DC000FB1D1A70FB1D1B787F2B09D8FB1D1B7890
:101DD0001A001F231A40044B012191400A001A6087
:101DE000C046BD4602B080BD00E100E090B583B0C2
:101DF00000AF02003960FB1D1A70FB1D1B787F2BA2
:101E000028D82F4AFB1D1B785BB29B08C0339B0070
:101E10009B58FA1D1278110003220A40D200FF21BC
:101E200091400A00D2431A4011003B689B01FF22F7
:101E30001A40FB1D1B78180003230340DB009A4067
:101E40001F48FB1D1B785BB29B080A43C0339B00F5
:101E50001A5031E01B4AFB1D1B7819000F230B4061
:101E6000083B9B0806339B00D31804331B68FA1DFC
:101E70001278110003220A40D200FF2191400A008B
:101E8000D2431A4011003B689B01FF221A40FB1D00
:101E90001B78180003230340DB009A400948FB1D10
:101EA0001B781C000F232340083B9B080A43063382
:101EB0009B00C31804331A60C046BD4603B090BDF2
:101EC00000E100E000ED00E080B582B000AF786096
:101ED0007B685A1E80235B049A4201D3012310E0E1
:101EE0000A4B7A68013A5A6001235B4203211800C9
:101EF000FFF77CFF054B00229A60044B07221A6013
:101F000000231800BD4602B080BDC04610E000E0CE
:101F100080B584B000AFB9607A600F217B18021CD5
:101F20001A70BA687B181B785BB211001800FFF7B3
:101F30005DFFC046BD4604B080BD80B582B000AF35
:101F40000200FB1D1A70FB1D1B785BB21800FFF727
:101F500033FFC046BD4602B080BD80B582B000AF41
:101F600078607B681800FFF7AFFF03001800BD46DC
:101F700002B080BD80B584B000AF78600023FB6004
:101F80007B68002B01D1012336E07B6821220221EE
:101F900099547B681B681B68FB60FB68184A1340F8
:101FA000FB607B685A687B689B681A437B68DB68C8
:101FB0001A437B681B691A437B685B691A437B6819
:101FC0009B691A437B68DB691343FA681343FB6020
:101FD0007B681B68FA681A607B68180000F046F995
:101FE0007B6800229A637B682122012199547B68D7
:101FF00020220021995400231800BD4604B080BD62
:102000000FC0FFFF80B586B000AFF860B9607A609E
:102010003B601723FB1800221A70FB6820229B5C90
:10202000012B01D102234FE0FB68202201219954AA
:10203000FB6821229B5CDBB2012B3AD1FB68212299
:1020400002219954FB6800229A63FB681B681A6896
:10205000FB681B6801218A431A603B687A68B9688B
:10206000F86800F0D7F8FB68DB6A002B08D0FB6843
:102070001B681A68FB681B680E210A431A600FE090
:10208000FB681B681A68FB681B680A210A431A6010
:10209000FB681B681A68FB681B6804218A431A6086
:1020A000FB681B681A68FB681B6801210A431A60F9
:1020B00007E0FB682022002199541723FB18022215
:1020C0001A701723FB181B781800BD4606B080BD98
:1020D00080B584B000AF78607B68DB6B1B68FB6009
:1020E0007B681B681B68BB607B681B6C04229A4082
:1020F0001300FA68134024D0BB680422134020D098
:102100007B681B681B682022134007D17B681B6813
:102110001A687B681B6804218A431A607B681A6C02
:102120007B68DB6B042191400A005A607B68DB6AA4
:10213000002B00D16AE07B68DB6A7A681000984760
:1021400064E07B681B6C02229A401300FA6813401B
:102150002BD0BB680222134027D07B681B681B680A
:10216000202213400BD17B681B681A687B681B68B0
:102170000A218A431A607B682122012199547B68D5
:102180001A6C7B68DB6B022191400A005A607B6805
:102190002022002199547B689B6A002B36D07B68F3
:1021A0009B6A7A681000984730E07B681B6C0822B5
:1021B0009A401300FA68134028D0BB6808221340E5
:1021C00024D07B681B681A687B681B680E218A43D1
:1021D0001A607B681A6C7B68DB6B012191400A00F6
:1021E0005A607B6801229A637B68212201219954FD
:1021F0007B682022002199547B681B6B002B05D043
:102200007B681B6B7A6810009847FFE7C046BD46A5
:1022100004B080BD80B584B000AFF860B9607A606A
:102220003B60FB681A6CFB68DB6B012191400A0084
:102230005A60FB681B683A685A60FB685B68102B41
:1022400008D1FB681B687A689A60FB681B68BA68EB
:10225000DA6007E0FB681B68BA689A60FB681B6875
:102260007A68DA60C046BD4604B080BD80B582B0F1
:1022700000AF78607B681B68084A94466344142169
:102280001800FDF741FF03009A007B681A647B6821
:10229000034ADA63C046BD4602B080BDF8FFFDBF09
:1022A0000000024080B586B000AF7860396000233E
:1022B0007B614FE13B681B6801217A6991400A000C
:1022C0001340FB60FB68002B00D140E13B685B687A
:1022D00003221340012B05D03B685B6803221340A7
:1022E000022B30D17B689B683B617B695B000322DA
:1022F0009A401300DA433B6913403B613B68DA685C
:102300007B695B009A4013003A6913433B617B6829
:102310003A699A607B685B683B6101227B699A40FD
:102320001300DA433B6913403B613B685B681B0960
:1023300001221A407B699A4013003A6913433B61BA
:102340007B683A695A603B685B6803221340032B41
:1023500017D07B68DB683B617B695B0003229A4096
:102360001300DA433B6913403B613B689A687B6921
:102370005B009A4013003A6913433B617B683A69FA
:10238000DA603B685B6803221340022B23D17B6930
:10239000DA087B6808329200D3583B617B690722D8
:1023A00013409B000F229A401300DA433B6913400D
:1023B0003B613B681A697B6907210B409B009A408F
:1023C00013003A6913433B617B69DA087B68083282
:1023D00092003969D1507B681B683B617B695B0067
:1023E00003229A401300DA433B6913403B613B6888
:1023F0005B6803221A407B695B009A4013003A69CC
:1024000013433B617B683A691A603B685A68C02392
:102410009B02134000D19AE0544B9A69534B01211F
:102420000A439A61514B9B6901221340BB60BB6810
:102430004F4A7B699B0802339B009B583B617B6939
:10244000032213409B000F229A401300DA433B699A
:1024500013403B617A689023DB059A4213D07B6876
:10246000444A93420DD07B68434A934207D07B682D
:10247000424A934201D1032306E0052304E00223EC
:1024800002E0012300E000237A6903210A40920060
:1024900093403A6913433B6135497B699B0802339A
:1024A0009B003A695A50364B9B683B61FB68DA43A4
:1024B0003B6913403B613B685A6880235B031340D0
:1024C00003D03A69FB6813433B612D4B3A699A602C
:1024D0002B4BDB683B61FB68DA433B6913403B6194
:1024E0003B685A6880239B03134003D03A69FB681A
:1024F00013433B61224B3A69DA60214B5B683B61D5
:10250000FB68DA433B6913403B613B685A688023B0
:102510009B02134003D03A69FB6813433B61184B9D
:102520003A695A60164B1B683B61FB68DA433B69AA
:1025300013403B613B685A6880235B02134003D021
:102540003A69FB6813433B610D4B3A691A607B693A
:1025500001337B613B681A687B69DA40131E00D047
:10256000A8E6C046C046BD4606B080BD0010024089
:10257000000001400004004800080048000C00482A
:102580000004014080B582B000AF786008001100FF
:10259000BB1C021C1A807B1C0A1C1A707B1C1B783B
:1025A000002B04D0BB1C1A887B689A6103E0BB1C1B
:1025B0001A887B689A62C046BD4602B080BD0000A2
:1025C00080B588B000AF78607B68002B01D1012313
:1025D00001E37B681B680122134000D18DE0C34BEF
:1025E0005B680C221340042B0ED0C04B5B680C229E
:1025F0001340082B16D1BD4B5A6880235B021A404A
:1026000080235B029A420DD1B84B1A6880239B024B
:10261000134000D170E07B685B68002B00D06BE05A
:102620000123D8E27B685B68012B07D1AF4B1A68A6
:10263000AE4B802149020A431A602FE07B685B6839
:10264000002B0CD1A94B1A68A84BA9490A401A6063
:10265000A64B1A68A54BA7490A401A601EE07B6882
:102660005B68052B0ED1A14B1A68A04B8021C902D3
:102670000A431A609D4B1A689C4B802149020A4309
:102680001A600BE0994B1A68984B99490A401A60F6
:10269000964B1A68954B97490A401A607B685B68AD
:1026A000002B14D0FEF7A6FF0300BB6108E0FEF785
:1026B000A1FF0200BB69D31A642B01D903238AE26C
:1026C0008A4B1A6880239B021340F0D015E0FEF776
:1026D00091FF0300BB6108E0FEF78CFF0200BB69BD
:1026E000D31A642B01D9032375E2804B1A68802327
:1026F0009B021340F0D100E0C0467B681B680222B9
:10270000134000D169E0794B5B680C2213400BD079
:10271000764B5B680C221340082B1CD1734B5A6814
:1027200080235B02134016D1704B1B6802221340BA
:1027300005D07B68DB68012B01D001234BE26B4B9A
:102740001B68F822934319007B681B69DA00674B0A
:102750000A431A6041E07B68DB68002B24D0634B9E
:102760001A68624B01210A431A60FEF743FF030017
:10277000BB6108E0FEF73EFF0200BB69D31A022BE3
:1027800001D9032327E2594B1B6802221340F1D0E1
:10279000564B1B68F822934319007B681B69DA00CB
:1027A000524B0A431A6018E0504B1A684F4B0121F4
:1027B0008A431A60FEF71EFF0300BB6108E0FEF7C4
:1027C00019FF0200BB69D31A022B01D9032302E2CD
:1027D000464B1B6802221340F1D17B681B6808221C
:1027E000134036D07B68DB69002B19D03F4B5A6A07
:1027F0003E4B01210A435A62FEF7FCFE0300BB6117
:1028000008E0FEF7F7FE0200BB69D31A022B01D9DC
:102810000323E0E1354B5B6A02221340F1D018E05C
:10282000324B5A6A314B01218A435A62FEF7E2FE6B
:102830000300BB6108E0FEF7DDFE0200BB69D31AAE
:10284000022B01D90323C6E1284B5B6A0222134005
:10285000F1D17B681B680422134000D1B4E01F2033
:102860003B1800221A70214BDA6980235B05134064
:1028700010D11E4BDA691D4B802149050A43DA61EC
:102880001A4BDA6980235B051340FB60FB683B1839
:1028900001221A70184B1A6880235B0013401AD16A
:1028A000154B1A68144B802149000A431A60FEF741
:1028B000A1FE0300BB6108E0FEF79CFE0200BB69BD
:1028C000D31A642B01D9032385E10B4B1A688023AB
:1028D0005B001340F0D07B689B68012B0ED1034B4B
:1028E0001A6A024B01210A431A6235E000100240C5
:1028F000FFFFFEFFFFFFFBFF007000407B689B684F
:10290000002B0CD1B64B1A6AB54B01218A431A62CF
:10291000B34B1A6AB24B04218A431A621CE07B68EB
:102920009B68052B0CD1AE4B1A6AAD4B04210A43B0
:102930001A62AB4B1A6AAA4B01210A431A620BE0D6
:10294000A74B1A6AA64B01218A431A62A44B1A6A42
:10295000A34B04218A431A627B689B68002B14D026
:10296000FEF748FE0300BB6109E0FEF743FE0200EC
:10297000BB69D31A9B4A934201D903232BE1984B9D
:102980001B6A02221340F0D013E0FEF733FE03006F
:10299000BB6109E0FEF72EFE0200BB69D31A914A23
:1029A000934201D9032316E18D4B1B6A0222134087
:1029B000F0D11F23FB181B78012B05D1884BDA6956
:1029C000874B89490A40DA617B681B6810221340F3
:1029D00063D07B685B69012B2AD1814B5A6B804B9A
:1029E00004210A435A637E4B5A6B7D4B01210A43F3
:1029F0005A63FEF7FFFD0300BB6108E0FEF7FAFD36
:102A00000200BB69D31A022B01D90323E3E0744B04
:102A10005B6B02221340F1D0714B5B6BF822934346
:102A200019007B689B69DA006D4B0A435A6334E0F6
:102A30007B685B69053311D1694B5A6B684B042184
:102A40008A435A63664B5B6BF822934319007B6899
:102A50009B69DA00624B0A435A631EE0604B5A6B73
:102A60005F4B04210A435A635D4B5A6B5C4B012157
:102A70008A435A63FEF7BEFD0300BB6108E0FEF720
:102A8000B9FD0200BB69D31A022B01D90323A2E0CE
:102A9000534B5B6B02221340F1D17B681B6A002B06
:102AA00000D197E04E4B5B680C221340082B00D1FD
:102AB0006BE07B681B6A022B4CD1494B1A68484B70
:102AC0004A490A401A60FEF795FD0300BB6108E021
:102AD000FEF790FD0200BB69D31A022B01D9032334
:102AE00079E03F4B1A6880239B041340F0D13C4BA4
:102AF000DB6A0F22934319007B68DA6A384B0A437A
:102B0000DA62374B5B683A4A134019007B689A6A6D
:102B10007B685B6A1A43324B0A435A60304B1A682F
:102B20002F4B802149040A431A60FEF763FD03001E
:102B3000BB6108E0FEF75EFD0200BB69D31A022B01
:102B400001D9032347E0264B1A6880239B041340D6
:102B5000F0D03FE0224B1A68214B24490A401A600A
:102B6000FEF748FD0300BB6108E0FEF743FD0200ED
:102B7000BB69D31A022B01D903232CE0184B1A6826
:102B800080239B041340F0D124E07B681B6A012B57
:102B900001D101231FE0124B5B687B61104BDB6AA4
:102BA0003B617A6980235B021A407B685B6A9A42C8
:102BB0000ED13B690F221A407B68DB6A9A4207D12B
:102BC0007A69F0239B031A407B689B6A9A4201D082
:102BD000012300E000231800BD4608B080BDC046B8
:102BE0000010024088130000FFFFFFEFFFFFFFFE11
:102BF000FFFFC2FF80B584B000AF786039607B68AA
:102C0000002B01D10123B3E05B4B1B680122134071
:102C10003A689A4211D9584B1B6801229343190014
:102C2000554B3A680A431A60534B1B680122134004
:102C30003A689A4201D001239AE07B681B6802221D
:102C4000134015D07B681B680422134006D04B4B01
:102C50005A684A4BE021C9000A435A60474B5B68F7
:102C6000F022934319007B689A68444B0A435A60E8
:102C70007B681B680122134040D07B685B68012B96
:102C800007D13E4B1A6880239B02134014D10123C5
:102C90006EE07B685B68022B07D1384B1A68802393
:102CA0009B04134008D1012362E0344B1B680222CD
:102CB000134001D101235BE0304B5B680322934357
:102CC00019007B685A682D4B0A435A60FEF792FC44
:102CD0000300FB6009E0FEF78DFC0200FB68D31ADD
:102CE000274A934201D9032342E0244B5B680C221C
:102CF0001A407B685B689B009A42ECD11E4B1B68B4
:102D0000012213403A689A4211D21B4B1B680122E0
:102D100093431900184B3A680A431A60164B1B6814
:102D2000012213403A689A4201D0012320E07B68D7
:102D30001B680422134009D0104B5B68114A1340F2
:102D400019007B68DA680D4B0A435A6000F020F8DE
:102D500001000A4B5B681B090F2213400A4AD35C2F
:102D60000A00DA40094B1A600320FEF7FDFB00233E
:102D70001800BD4604B080BD002002400010024093
:102D800088130000FFF8FFFF5834000800000020FF
:102D900080B586B000AF0023FB600023BB6000233A
:102DA0007B6100237B6000233B61204B5B68FB6001
:102DB000FB680C221340042B02D0082B03D02CE01C
:102DC0001B4B3B612CE0FB689B0C0F221340194A04
:102DD000D35C7B60154BDB6A0F221340164AD35C31
:102DE000BB60FA6880235B02134009D0B9681048C1
:102DF000FDF78AF903001A007B6853437B6109E001
:102E000079680A005201521A93019B1ADB005B1881
:102E10001B027B617B693B6102E0054B3B61C04665
:102E20003B691800BD4606B080BDC0460010024098
:102E300000127A00683400087834000880B582B047
:102E400000AF78607B68002B01D1012342E07B68F2
:102E50003D229B5CDBB2002B07D17B683C2200212A
:102E600099547B681800FEF759FA7B683D220221CD
:102E700099547B681A687B6804331900100000F0CD
:102E800047F97B684622012199547B683E22012143
:102E900099547B683F22012199547B68402201218B
:102EA00099547B684122012199547B684222012177
:102EB00099547B684322012199547B684422012163
:102EC00099547B684522012199547B683D22012158
:102ED000995400231800BD4602B080BD80B584B06F
:102EE00000AF78607B683D229B5CDBB2012B01D098
:102EF000012330E07B683D22022199547B681B68E6
:102F0000DA687B681B6801210A43DA607B681B680A
:102F1000134A934204D07B681B68124A934211D132
:102F20007B681B689B6807221340FB60FB68062BCD
:102F300010D07B681B681A687B681B6801210A43F4
:102F40001A6007E07B681B681A687B681B680121B0
:102F50000A431A6000231800BD4604B080BDC04675
:102F6000002C01400004004080B584B000AF7860C0
:102F700039600F23FB1800221A707B683C229B5C8F
:102F8000012B01D10223BCE07B683C220121995432
:102F90007B683D22022199547B681B689B68BB605B
:102FA000BB6877229343BB60BB68584A1340BB6041
:102FB0007B681B68BA689A603B681B688022920134
:102FC000934240D080229201934200D988E080222F
:102FD0005201934200D188E080225201934200D9ED
:102FE0007EE0702B18D000D97AE0602B4FD000D94A
:102FF00076E0502B3BD000D972E0402B57D000D95F
:103000006EE0302B63D06BD8202B60D068D8002BBB
:103010005DD0102B5BD063E07B6818683B689968D3
:103020003B685A683B68DB6800F066F97B681B68A0
:103030009B68BB60BB6877221343BB607B681B68DF
:10304000BA689A6052E07B6818683B6899683B6888
:103050005A683B68DB6800F04FF97B681B689A6828
:103060007B681B688021C9010A439A603EE07B6847
:1030700018683B6859683B68DB681A0000F0C2F8C2
:103080007B681B685021180000F01CF92EE07B685B
:1030900018683B6859683B68DB681A0000F0E0F884
:1030A0007B681B686021180000F00CF91EE07B684B
:1030B00018683B6859683B68DB681A0000F0A2F8A2
:1030C0007B681B684021180000F0FCF80EE07B686C
:1030D0001A683B681B681900100000F0F3F805E05F
:1030E0000F23FB1801221A7000E0C0467B683D22C6
:1030F000012199547B683C22002199540F23FB182D
:103100001B781800BD4604B080BDC046FF00FFFF1D
:1031100080B584B000AF786039607B681B68FB6065
:103120007B68324A934203D07B68314A934208D18C
:10313000FB6870229343FB603B685B68FA6813434B
:10314000FB607B68294A93420FD07B68284A9342F0
:103150000BD07B68274A934207D07B68264A93426C
:1031600003D07B68254A934208D1FB68244A134068
:10317000FB603B68DB68FA681343FB60FB688022F6
:1031800093431A003B685B691343FB607B68FA68F2
:103190001A603B689A687B68DA623B681A687B68E9
:1031A0009A627B68114A934207D07B68124A934225
:1031B00003D07B68114A934203D13B681A697B684C
:1031C0001A637B6801225A617B681B6901221340E4
:1031D000012B06D17B681B69012293431A007B688F
:1031E0001A61C046BD4604B080BDC046002C0140F7
:1031F000000400400020004000440140004801401D
:10320000FFFCFFFF80B586B000AFF860B9607A6060
:10321000FB681B6A7B61FB681B6A012293431A00EF
:10322000FB681A62FB689B693B613B69F022934330
:103230003B617B681B013A6913433B617B690A224E
:1032400093437B617A69BB6813437B61FB683A698E
:103250009A61FB687A691A62C046BD4606B080BDB5
:1032600080B586B000AFF860B9607A60FB681B6A11
:103270007B61FB681B6A102293431A00FB681A6289
:10328000FB689B693B613B690D4A13403B617B686E
:103290001B033A6913433B617B69A02293437B6123
:1032A000BB681B017A6913437B61FB683A699A61C9
:1032B000FB687A691A62C046BD4606B080BDC0464A
:1032C000FF0FFFFF80B584B000AF786039607B6886
:1032D0009B68FB60FB6870229343FB603A68FB6865
:1032E000134307221343FB607B68FA689A60C04669
:1032F000BD4604B080BD000080B586B000AFF86068
:10330000B9607A603B60FB689B687B617B69094AB6
:1033100013407B613B681A027B681A43BB68134306
:103320007A6913437B61FB687A699A60C046BD463F
:1033300006B080BDFF00FFFF80B584B000AF7860AD
:1033400039607B683C229B5C012B01D102233CE06D
:103350007B683C22012199547B683D2202219954CB
:103360007B681B685B68FB607B681B689B68BB6055
:10337000FB6870229343FB603B681B68FA68134349
:10338000FB607B681B68FA685A607B681B68114A9F
:10339000934204D07B681B680F4A93420CD1BB68F0
:1033A00080229343BB603B685B68BA681343BB6091
:1033B0007B681B68BA689A607B683D22012199543A
:1033C0007B683C220021995400231800BD4604B0BC
:1033D00080BDC046002C014000040040030082185C
:1033E000934200D1704719700133F9E770B5002698
:1033F0000C4C0D4D641BA410A64209D1002600F010
:1034000019F80A4C0A4D641BA410A64205D170BDE0
:10341000B300EB5898470136EEE7B300EB589847F6
:103420000136F2E788340008883400088C3400083C
:1034300088340008F8B5C046F8BC08BC9E46704702
:0C344000F8B5C046F8BC08BC9E467047BA
:10344C003F065B4F666D7D077F6F0000000000003C
:10345C00000000000102030406070809020304052A
:10346C00060708090A0B0C0D0E0F101001020304BD
:0C347C0005060708090A0B0C0D0E0F10C6
:04348800E90000084F
:04348C00C100000873
:0C34900000127A0004000000010000009F
:04000005080014EDEE
:00000001FF
